:020000040020DA
:10200000785600208D2220003364200031642000A7
:1020100031642000316420003164200000000000A1
:1020200000000000000000000000000031642000FB
:10203000316420000000000031642000956420001D
:10204000B7642000BD642000C3642000C964200080
:10205000000000009B642000A16420003164200087
:1020600031642000000000000000000000000000BB
:1020700000000000000000003164200000000000AB
:1020800000000000000000003164200031642000E6
:10209000316420003164200031642000316420006C
:1020A000316420003164200031642000316420005C
:1020B000316420003164200031642000316420004C
:1020C000316420003164200031642000316420003C
:1020D000316420000000000000000000000000004B
:1020E00000000000000000000000000000000000F0
:1020F00000000000000000006D3820007D38200046
:1021000000000000000000000000000000000000CF
:1021100000000000000000000000000000000000BF
:1021200000000000000000000000000000000000AF
:10213000000000000000000000000000000000009F
:10214000000000000000000000000000000000008F
:10215000000000000000000000000000000000007F
:10216000000000000000000000000000000000006F
:10217000000000000000000000000000000000005F
:10218000000000000000000000000000000000004F
:10219000000000000000000000000000000000003F
:1021A000000000000000000000000000000000002F
:1021B000000000000000000000000000000000001F
:1021C000000000000000000000000000000000000F
:1021D00000000000000000000000000000000000FF
:1021E00000000000000000000000000000000000EF
:1021F00000000000000000000000000000000000DF
:1022000000000000000000000000000000000000CE
:1022100000000000000000000000000000000000BE
:1022200000000000000000000000000000000000AE
:10223000000000000000000000000000000000009E
:10224000000000000000000000000000000000008E
:10225000000000000000000000000000000000007E
:10226000000000000000000000000000000000006E
:10227000316420005537200079372000112E2000CE
:10228000DD392000C928200031642000FF224824C5
:1022900008B5084B08481A60084AE369121A084949
:1022A00098470848084AA369121A0021984700F085
:1022B0000DF8FEE7B4200D4040400020F84000201B
:1022C00048722000F8400020774E002073B500F0DF
:1022D0003FFC00F039FD00F095FC00F061FA01F0E0
:1022E0006BFB04F07FF900F027FD00F0B3F801204C
:1022F00004F0A2F802F026F900F016FC002000F02D
:1023000037FB012000F034FB4049002000F0F6FBD1
:1023100002F060FA04F0C7F8042004F08DF83C489D
:1023200004F0F6F83B4804F0F3F800F0D5F900208B
:1023300002F0FCFA01F034FA0021374802F090F97B
:1023400002F02EF804F0A4F800F084FD00F0A0FDE7
:1023500002F060FE0821684601F052FB9DF806304D
:102360009DF807502D4C45EA0325BDF806302C4852
:10237000238001F07FFB2B4E21782B4801F07AFB64
:1023800061782A4801F076FBF46A4AF6CD310220E2
:10239000A04729460320A0471A210120A047082270
:1023A0006946736B0B209847214801F063FB214B72
:1023B000186804F0ADF8204801F05CFB1F4B18686A
:1023C00004F0A6F81E4801F055FB1E4B186804F0F7
:1023D0009FF800211C4802F043F91C4B01219B6827
:1023E0008120984704F0EEF8194804F0E1F800F075
:1023F000A1FB022004F020F800F0A2FB02F0BAF8E2
:1024000010F0FF0FF8D101F06DFAF5E78D472000CD
:10241000FA6F200016702000684000206E4E0020E9
:102420003B7020008C6E2000597020005F702000EF
:1024300065702000706F20006C702000906F20008D
:1024400073702000AC6F200098400020146E2000B4
:10245000E86F200008B500F0E5F80022014B1A7083
:1024600008BD00BFF44C0020024A137818431070D6
:1024700000F0FCB8F44C0020034A137823EA000073
:10248000107000F0F3B800BFF44C0020024A13783B
:102490005840107000F0EAB8F44C002018B1012840
:1024A00004D000207047034B18687047024B18781F
:1024B000704700BF20900D40F54C002010B5094A30
:1024C0000020137801331370074B197802F0A0F83D
:1024D000BDE8104005490023054A0968054801F098
:1024E00095BF00BFF54C0020704E00203041002009
:1024F000BD24200010410020812810B50C462BD0AF
:10250000B0F5807F3AD0802824D102F013F81D4B1B
:102510001D4A18701368032123F00803136052F852
:10252000203C002023F0080342F8203C52F81C3CD9
:1025300023F0080342F81C3C52F8183C43F008030F
:1025400042F8183C042200F00DFC032200210F4841
:1025500000F0AAFB012408E00D4B1A6839B142F0E3
:1025600008021A60002000F011FB204610BD22F086
:1025700008021A60084600F017FBF6E7054B1960E1
:10258000E8E700BF704E002020940D409925200000
:1025900010940D403041002008B50F4804F02BF88E
:1025A000C8B108210C4804F01FF80C4B196849B158
:1025B00000220B4B1A700B4B1B6843B90A4A0B489D
:1025C00001F024FFBDE80840094802F07FB9074840
:1025D00001F026FFF6E708BD084100203041002049
:1025E000F54C002020900D40BD242000104100201B
:1025F000146E2000084A136823F00403136052F895
:10260000203C43F0040342F8203C0022034B1A60B4
:102610000122034B1A70704720C40D4010C00D40BA
:10262000F64C00200D4A0E49136823F0C0031360D6
:1026300052F8203C43F0C00342F8203C0022094BF2
:102640001A600B6823F010030B6051F8203C43F034
:10265000100341F8203C044B1A60704720A40D4041
:1026600020C40D4000A30D4040C00D4010F00202F8
:1026700018BFFF22084B1A6010F0040218BFFF2297
:10268000064B10F001001A6018BFFF22044B14BF64
:102690001A601860704700BF00A20D4000A10D40F5
:1026A00040C00D40044B1868C0F30720030904BF65
:1026B0001030C0B2704700BF1C300D40054B186889
:1026C000C0F3C21001289ABFC0F1020040034FF4CA
:1026D0000040704714300D402DE9F047482588B080
:1026E000FFF7E0FF164B07461C68AB6898476B681E
:1026F000804698470546FFF7E1FF064600F0BCFA22
:10270000814600F0C5FA824600F072FAB60A04F07B
:102710000103AD0AC4F34004CDE905A00393CDF84D
:10272000109002940196009507F00F03C7F307126B
:102730004146044801F09EF908B0BDE8F08700BFAB
:102740001C300D40817020002DE9F04800F07EF82B
:10275000114B4FF0000BD3E900673A46B04238BF47
:102760007A1C15464BEA0004C3E900450B49D1E940
:1027700000BCBBEB06026CEB0703161943EB050725
:10278000C1E9006701F0ACFD18B1BDE8F04801F007
:102790002BBDBDE8F08800BF00410020F8400020BC
:1027A0000F4B104A1A6053F8042C42F0050243F80C
:1027B000042C53F8042C42F0020243F8042C0A4A79
:1027C000136843F0010313600022084B1A600422CF
:1027D00043F80C2C012243F8082C0F22DA627047D0
:1027E00014E000E047E8010008200D400C00034021
:1027F000034BD3E90023100A40EA0360704700BF8F
:1028000000410020054B18601C3B1A6842F0010291
:102810001A601A68D207FCD4704700BF2800034032
:1028200010B5064C236823F001032360FFF78CFFEB
:10283000236843F00103236010BD00BF10E000E0F7
:10284000014B1868704700BF34410020064B1868E0
:102850005A6808331B681B0443EA0223034A0343F4
:10286000106843EA0060704740500D404C500D40E6
:1028700010B50446114A1368DB07FCD503F017FEB8
:10288000FFF7E4FF231A062BD8BFC41D0C4B220E02
:102890001A60C4F3074243F8042CC4F3072243F838
:1028A000082CE2B243F80C2C03F0FDFD054B9120FF
:1028B0001C60BDE8104000F069B900BF50500D40E9
:1028C0004C500D403441002008B500F0F3FF0022C9
:1028D000054B91201A6000F075F9912000F064F921
:1028E000BDE8084001F0F2BE34410020064B1B68F1
:1028F0001B075FBF054B186880F00800C0F3C000DD
:1029000048BF0020704700BF18C0004018D00040EA
:102910002C23154A70B503FB00234FF6BF72DC6809
:102920000546236C626413F050020DD00F4EA3696C
:10293000DB0600D570BD56F825301BB12068C0B24B
:102940009847F4E72368F2E713F4D06FF2D04FF41E
:1029500040732363FF236360E36AE262E362236BF5
:1029600043F001032363E5E7246E20003841002093
:1029700001282DE9F74F064600F2B0802C2545438B
:10298000584F7C1994F92080B8F1000FC0F2A6804E
:1029900094F92290B9F1000FC0F2A080524800F0E3
:1029A000FBFF524A79591368E5680B43136053687B
:1029B000616894F921A00B4353609368A1685FFAA2
:1029C00089FB0B4393600023C5F8C83F23690AEBDA
:1029D000C8021A6094F92330227D00939DF80030DC
:1029E00058461946019300F0C7F9019B0822194681
:1029F000584600F0B7F901233D494FEA0939009ADA
:102A000059F8010003FA02F2024349F801204FEAA3
:102A1000083858F8010003FA0AF2024348F8012086
:102A20005022AA63AA6B94F9240042F4D062AA63EC
:102A300002226A634FF440722A63A26900286A6224
:102A4000E269AA624FF07002EA620D4614DB94F963
:102A50002510284A41EAC0041460020354598B40EF
:102A600023435351C9B20022C0B200F07BF9224A7D
:102A7000136843F4004313602C2303FB067393F99C
:102A80002640002C1BDB93F927A05FFA84F85FFA3D
:102A90008AF901224946404600F06EF901232403D9
:102AA000625903FA0AF31343635108224946404628
:102AB00000F058F9104A136843F4804313602C2344
:102AC00003FB0676F26896F82800136B43F00103C7
:102AD000136303B0BDE8F04F00F058B803B0BDE891
:102AE000F08F00BF246E2000ED28200028200D402C
:102AF00020940D4004410D4030D0004001289CBF7F
:102B0000014B43F82010704738410020012808D8B5
:102B10002C22044B02FB0030C3689A699206FCD455
:102B200019607047246E20000022014B1A60704724
:102B300000500D400822014B1A60704700500D40B4
:102B4000A022024B1A6050221A60704700500D40BC
:102B5000074B084A1A60084B80321A60074B8032D4
:102B60001A60074B80321A60064A074B1A6070479A
:102B70004441002000E100E04041002048410020A5
:102B80004C4100200020200008ED00E0054B4109E9
:102B90001A68012300F01F0003FA00F042F8210038
:102BA000704700BF44410020054B41091A680123CA
:102BB00000F01F0003FA00F042F82100704700BF48
:102BC00040410020054B41091A68012300F01F0015
:102BD00003FA00F042F82100704700BF4C4100208A
:102BE000024B1868C0F38150704700BF04200D40AD
:102BF00008B5FFF7F5FF024B53F8200008BD00BFF2
:102C00007C6E200038B5164D164C2B68012223F03F
:102C100040032B602368062123F040032360032038
:102C200000F0A0F82B68012223F080032B602368BA
:102C3000072123F080032360032000F093F80A4B60
:102C40000A4A0B491A600B4A134610680842FCD125
:102C50001A685101FCD41A685201FCD538BD00BF76
:102C600020C40D4000C40D4000200D4001010200B1
:102C70000000010104200D40034B04481B6803F0D1
:102C800007031841704700BF04200D400048E801C9
:102C9000034B04481B68C3F302231841704700BF6D
:102CA00004200D400048E801024B02EBC10243F84A
:102CB0002200704750410020F8B507460E46002418
:102CC000084D05EB411547FA04F3DB07E1B204D5E3
:102CD00055F824300BB1304698470134082CF2D116
:102CE000F8BD00BF504100202DE9F04780464FEA73
:102CF0000837DFF8409007F1804505F5592500F0C9
:102D0000D9FDD5F8186457F809404FEAC80A24FAE3
:102D10000AF446EA0400E4B24146C0B2F6B204FA4C
:102D20000AF4FFF7C9FFC5F81C6447F80940BDE87D
:102D3000F08700BF18970D4080220021014803F062
:102D40002DBB00BF50410020034B044A1A60044BC6
:102D5000803A1A60704700BFD041002080400D408B
:102D6000D4410020034B01EBC0011B6843F8212034
:102D7000704700BFD0410020034B01EBC0011B682E
:102D800043F82120704700BFD44100200E2870B5C1
:102D90000BD1154B154E1C6844F002051D603568BB
:102DA00025F03F0343F001033360114E336823F0F5
:102DB000FF031A43114301430E4A316013681B0697
:102DC000FCD50D4B0D4A1B6812680E2803F0FC035E
:102DD00043EA022308BF054A1BB204BF1560024A3A
:102DE000184608BF146070BD34000144F4860840E2
:102DF00008700D4000700D400C700D4010700D40BB
:102E0000024B1868B0FA80F04009704700B70840DC
:102E100010B58F20064CFFF7D5FE8F20FFF7C4FEBC
:102E2000206818B101F034FC0023236010BD00BFFE
:102E3000D8410020064A136843F002031360536828
:102E400043F002035360936843F0020393607047BA
:102E500048200D4007B50C4800F09EFDFFF7EAFF43
:102E60000A4B1A6842F002021A6000220192019A8B
:102E70000F2A06DD1A6822F002021A6003B05DF81C
:102E800004FB019A0132F1E7012E200054200D408D
:102E9000064A136823F002031360536823F0020309
:102EA0005360936823F002039360704748200D40FD
:102EB0000B4B1A689207FCD41B685B065FBFED22C0
:102EC000084B1A601A60084B1B6813B1EF22054BC0
:102ED0001A60064A0120137803F07F0313707047CD
:102EE0004C860840388808402C860840F94C002061
:102EF000044B186800F02200A0F12003584258410A
:102F0000704700BF4C860840024B186800F0400034
:102F1000704700BF4C860840084B93F90020002AF8
:102F200009DBED21064A11601160E32111601A7876
:102F300062F07F021A700120704700BFF94C002038
:102F400038880840A0F10B01CBB20F2B10B5044616
:102F500013D80B4B1B6813F03F0302D0FFF7A8FFF9
:102F6000012301EB8101074A0B3111600BB1FFF71F
:102F7000D3FF054B60B21C7010BD4FF0FF30FBE774
:102F8000488608403C860840F640002010B50C46B4
:102F9000002900F08680102800F28580DFE800F02C
:102FA00009101B22243B44575C727683837B7D543B
:102FB0007F003E4B1B68003318BF0123236024E0D1
:102FC00005223B4B1B6803F07F030B3B93FBF2F3A3
:102FD0000B33DBB2F2E7374B1A68043B1B6843EA5A
:102FE0000223EBE7344BF7E700230B60334B344A03
:102FF0001B6803F001030B601268900644BF43F0A6
:1030000002030B602F4B1B780BB900200BE00B6801
:1030100043F00403D2E700202B4B08601B78002B01
:10302000F3D001230B6010BD284B29491A680023F7
:10303000D2B201EBC3000079904202D851F833308C
:10304000BCE701330E2BF4D16FF01703B6E7214B29
:103050001B685BB2493BB1E71F4B1B6899060FD158
:10306000FFF75AFF01231D490A68D207FCD51C4A05
:103070001168493949B20BB1FFF71AFF2160C4E763
:103080000023F0E7174B93F9003097E7164B1B78B6
:1030900003F07F0392E70B2390E71A238EE70723C1
:1030A0008CE70220BFE70120BDE700BF2C86084067
:1030B0003C860840CC850840D485084000860840FE
:1030C00024860840F84C0020F74000204086084045
:1030D000C46E200058860840488608406486084030
:1030E00060860840FA4C0020F74C002008B50B4BD6
:1030F0001B6899060FD1FFF70FFF012308490A68E3
:10310000D207FCD5074A1168C1F300110BB1FFF7D4
:10311000CFFE084608BD0023F0E700BF4886084000
:10312000648608404C86084038B505460C46134A6C
:1031300013689B07FCD4124B93F90030002B01DB82
:10314000FFF7EAFEEE220F4B691E1A601A60A21CFE
:1031500043F8102C2144022000F03AFB0A49013CBC
:1031600041EA0411022000F045FB022000F04CFB74
:10317000022000F061FB002038BD00BF4C860840F3
:10318000F94C00203888084002C001C0F8B5224B35
:1031900093F90030002B18DBFFF758FB0446FFF7CC
:1031A000BBFEC4F1FF2404F57F04F634FFF74EFBA9
:1031B000C442FBD40126194B1B7843B9184C236831
:1031C000990609D502210846F8BD0026F3E7FFF766
:1031D0008DFF0028F2D1F5E7E9230427114D2B607C
:1031E00023689A0703D4013F17F0FF070BD1236828
:1031F0009B070CD4EE2301212B602B60002EE2D024
:10320000FFF756FEDFE70620FFF7FCFAE8E7216844
:1032100011F00201FBD1F1E7F94C0020F74000204A
:103220004C860840388808400B280DD1082A0DD15B
:1032300061B1074B074A083111F8010D43F8040B3F
:103240009342F9D100207047012070470220704757
:10325000A8850840C885084070B5304E336813F023
:10326000400358D02E4D2C68230605D5ED220020B2
:103270002C4B1A601A6070BDE4B2042CF6D9023CE3
:103280008C42F3DCE4B2032C1ED12B6803702B6854
:1032900043702B6883702968234B493949B21970F0
:1032A0002B68224D18062B70E0D589B2042001F05E
:1032B00087FE2978032001F07F0101F081FE1C4B7D
:1032C0001B78CBB12046D6E701190139032000F065
:1032D00087FA184B611E43EA0111032000F08AFAB5
:1032E000032000F091FA032000F0A6FA032000F07A
:1032F000AFFA0028FAD1CEE733685A06E2D5336830
:103300001B0603D50C4801F0C3F9DBE7ED22054BA2
:103310001A601A60D6E71846ADE700BF4C86084031
:103320002888084038880840FA4C0020F74C0020D4
:10333000F84C002002C0010C504000201D4B1870BA
:1033400000282FD01C4A13681B03FCD51B4B1A689E
:1033500042F002021A601A6842F001021A601A680A
:103360005007FCD51A6822F001021A601A6851074A
:10337000FCD41A6842F002021A601A6842F0010294
:103380001A601A685207FCD50D4A8D20136823F085
:103390000403136002F5D472136823F0040313606E
:1033A000FFF702BC064A8D20136843F00403136044
:1033B000FFF7ECBBF84C002004200D4004880840C7
:1033C0008C86084010B5072861D8DFE800F0040FAC
:1033D0001A212541475B012903D1FFF79DFD0020FC
:1033E0003BE0002955D1FFF763FDF8E7A1F10B039E
:1033F0000F2B4ED8C8B2FFF7A5FD0130EFD1032047
:103400002BE089B2244BCAB2090A1A605960E6E778
:1034100089B2CAB2214BF7E731F0070339D1204B0B
:1034200011F0010F1A68C1F3800014BF42F00102CD
:1034300022F001021A601B4B11F0020F1A6814BF30
:1034400042F0200222F020021A60FFF777FFC6E761
:1034500031F001001DD1144B197010BD01F118039A
:103460001F2B16D80D23114A52F83340D800A14221
:1034700004DC024412790E4B1A60B0E713F1FF33FB
:10348000F2D2ACE7C9B20B4B49311960A7E7012072
:10349000E3E70220E1E700BFC8850840D085084087
:1034A0000086084024860840F7400020C46E2000B3
:1034B0004086084058860840F8B5294F3D7815F0F9
:1034C00001054AD10124F822264B7F261C605C604E
:1034D0009C60A3F59323A3F514731A600922C3F823
:1034E0009021152270331A600B2203F59B2303F5FC
:1034F0009E731A604022A3F59B23A3F5F0731A6014
:103500001A6842F020021A60D52243F81C5CDE6281
:10351000DA61154B1878FFF715FD144B8E201E60ED
:10352000FFF734FB022000F07BF91149022000F084
:1035300057F9032000F074F90D49032000F048F911
:103540000C4B1878FFF7FAFE0B48294601F088F873
:1035500020463B7823433B70F8BD0020FCE700BFCA
:10356000F94C0020A8200D40F64000209486084029
:1035700028880840F84C00205040002038B50388C7
:10358000044653B340F20342934233D11B4B1878A5
:103590001A4638BB822923D1137873B901F0C2FCD3
:1035A00001F050FC8021FFF757FE002805DD80B2B6
:1035B00001F008FC124B1B699847124B1A7852060F
:1035C0000BD500221A70104B1D68FFF771FCFFF736
:1035D00073FFAB0601D0FFF79FFC40F2034323804B
:1035E00001200AE01B78002BFAD0064B1B78580606
:1035F000F6D5CFE700230380032038BDF84C002028
:10360000AC6F2000F94C0020488608400B282DE9BB
:10361000F74F8A4613D1082A40F08680002900F02F
:103620008380424B424A01F1FF3A53F80419934216
:103630000AF8011FF9D1002003B0BDE8F08F0C2873
:1036400070D1042A70D100296ED03A4A3A491368E1
:10365000DFF8F09023F0070313600B68DFF8E880D1
:1036600043F008030B60D9F80030D8F80040106828
:10367000DFF8D8E0DFF8D8C020F070001060DEF886
:103680000000DCF80050DBB2240243EA0563A4B278
:103690000004234300F47F00034328480668F4B283
:1036A000019400240094DDE9006746EA03061368EC
:1036B00023F0070343F0010313600B6843F0080392
:1036C0000B60D9F80030D8F800101568DBB225F08F
:1036D000700545F010051560DEF80020DCF800509C
:1036E000090243EA056389B212040B4302F47F0224
:1036F000134302680098D1B2894640EA0308FFF7F5
:10370000A5F8B6EB080667EB0907F90305460C4A6E
:103710000023F00341EA564102F016FC281ACAF8C9
:10372000000088E7012087E7022085E7C48508407C
:10373000A485084010880840048808401C88084078
:103740000048E80114880840188808402488084088
:103750002088084008B5054B1B7813B9044800F0D1
:1037600097FF0022034B1A6008BD00BFF84C0020F1
:103770005040002034880840064B07481A68042A45
:103780001FBF06490A7842F040020A7000221A6000
:1037900000F07EBF2C88084050400020F94C0020EB
:1037A00008B5094B40221846002102F0F7FD01211F
:1037B000064A116050602E20FFF7E8F9BDE8084086
:1037C0002F20FFF7E3B900BF0040002004F00F40B6
:1037D00003289EBF014B0001195070470040002094
:1037E00003289EBF024B03EB00104160704700BFEF
:1037F0000040002003289EBF024B03EB00108160B5
:10380000704700BF00400020032806D80123034A68
:1038100003FA00F0116808431060704728F00F4069
:10382000032806D80123034A03FA00F0116808436D
:103830001060704720F00F40032806D80123034A88
:1038400003FA00F0116808431060704714F00F404D
:1038500003289FBF044B03EB0010806800F00700B3
:1038600088BF0020704700BF004000204FF0FF32AB
:10387000014B1A60704700BF04F50F400122014B55
:103880001A6070474CF00F40084B19461A68D00276
:10389000FCD4074B1A6822F480321A600A68D203FB
:1038A000FCD41A6842F400321A60704704200D40BC
:1038B00000200D4010B5094C226890070DD0084B30
:1038C0001A4619684901FCD413685B01FCD5FEF760
:1038D000A7FFFFF7D9FF0023236010BD58200D403C
:1038E00004200D4038B5264B1C6814F03F0414D159
:1038F000244D55F8243023B1984770B10134052C7C
:10390000F7D1214D2B7843B1FEF79AFF0446FEF71D
:103910009DFF201A092800D90CB930BF27E01B4BA6
:103920001A6822F400321A60194A11461068C0025F
:10393000FCD41A6842F480321A600B68DB03FCD5B1
:10394000FEF784FF201A092803D8BDE83840FFF7A6
:103950009BBF63280F4C0BD92B78022B08D1236017
:1039600000F04CFE30B1FFF78FFF0023236038BD1D
:103970000123F4E7FEF764FF0028CED1F3E700BF90
:1039800048860840DC410020FB4C002000200D4010
:1039900004200D4058200D400023064A52F8231001
:1039A000814206D011B942F8230070470133052B3C
:1039B000F4D17047DC4100200022054B1A60054A13
:1039C000136843F0040313600222034B1A7070471C
:1039D00058200D4010ED00E0FB4C002010B5902069
:1039E000064CFFF7EFF89020FFF7DEF8206818B1DB
:1039F00000F04EFE0023236010BD00BFF041002008
:103A000070B5184B1B7843BB174A1278122A25D180
:103A1000164A12784B2A21D14A0802F52013144D78
:103A20002733441EAB4207D1002301F52011273173
:103A30001044934205DB70BD13F8016904F8016F6F
:103A4000F0E7CC1A2478C4540133F2E7D41A24786E
:103A5000C45401338B42F9DBEDE7002301F520125A
:103A60002732F7E72B0028002A0028002900280029
:103A7000270028000FB407B504AA52F8041B044815
:103A8000019200F021F803B05DF804EB04B0704738
:103A90006040002070B505460C460A4E102C07D831
:103AA00074B12B68224668680649BDE87040184723
:103AB0002B68102231466868984710B9103CEDE732
:103AC000204670BD6C7120002DE9F04F074614466A
:103AD00000258FB00791079B1B78B3B1DDF81C80E0
:103AE00000E0B046464616F8013B0BB1252BF8D155
:103AF000079B98450ED0A8EB03094A463B680799F7
:103B00007868984728B14FF0FF3528460FB0BDE8D8
:103B1000F08F4D4498F80030002BF6D098F8013023
:103B2000002BF2D04FF0000A314611F8012B33463A
:103B30002B2A16D00AD8202A16D0232A17D0A2F171
:103B4000310008283FD84FF0000918E02D2A04D092
:103B5000302AF4D14AF0100A01E04AF0010A0E4678
:103B6000E2E74AF0060AFAE74AF0020AF7E74AF003
:103B7000080AF4E70A2303FB0929A9F130093346AF
:103B800016F8012BA2F130010929F3D91A782E2A4F
:103B900035D159785A1CA1F13000092828D80026BF
:103BA00011781346A1F13000092802F101021AD957
:103BB0001A786C2A40F092805A786C2A22D14AF006
:103BC000800A023321E02A2A0AD1D4F800900B4659
:103BD000B9F1000F04F10404B8BF4AF0010AD5E7B7
:103BE0004FF00009D2E70A2303FB0616303ED7E761
:103BF0002A2903D1266802330434D9E713464FF04B
:103C0000FF36D5E701334AF0600A1A78642A00F0DB
:103C1000928000F28580462A00F0AF8071D8252A74
:103C200000F0C08066D8002A3FF46FAF01330793DD
:103C30000AF4E063B3F5806F00F0568200F2B580BD
:103C4000B3F5807F00F0EA80B3F5407F7FF443AFA7
:103C5000AF4B1AF4804FAF4A18BF1A460DF1330329
:103C600000211E462068043450EA010C40F07482A2
:103C7000F61A04BF302203F8012C4FF0780208BF77
:103C800003F1FF3303F8012C4FF0300208BF012687
:103C900003F8022C23220336B1458CBFA9EB060999
:103CA0004FF000091AF0010AA3F1030803F8032CEE
:103CB00006D149463846FFF7EDFE00287FF423AFD2
:103CC0003B68324641467868984700287FF41BAF2E
:103CD0003544BAF1000F00F03682ACE1682A94D185
:103CE0005A78682A02D14AF0200A6AE701334AF07A
:103CF000400A8AE7412A4CD0452A97D14AF4424AE1
:103D000094E7582A33D004D8472A8FD14AF4A13AED
:103D10008CE7612A3AD0632A88D14AF4A06A85E701
:103D20006E2A3CD00AD8662A24D029D3672A2AD002
:103D3000692A7FF47BAF4AF4245A77E7732A2BD0A1
:103D400007D86F2A10D0702A7FF470AF4AF4407AF7
:103D50006CE7752A05D0782A7FF468AF4AF4C85A10
:103D600064E74AF4106A61E74AF4885A5EE74AF465
:103D7000B24A5BE74AF4007A58E74AF4844A55E7C6
:103D80004AF4024A52E74AF4813A4FE74AF4C13A08
:103D90004CE74AF4E13A49E74AF4806A46E74AF4D4
:103DA000E06A43E74AF4C06A40E7B3F5C06F2BD03E
:103DB000B3F5E06F00F0DF81B3F5A06F7FF48BAE59
:103DC000B9F1010F38BF4FF0010923681AF001065D
:103DD00004F104048DF8203009F1FF3807D1414681
:103DE0003846FFF757FE00287FF48DAE45443B6808
:103DF000012208A97868984700287FF484AE002E35
:103E000000F0A181414617E13B68012242497868F0
:103E1000984700287FF477AE01355CE6002EACBFF2
:103E20002AF0100A01261AF400520AF0E003069262
:103E300043D0402B3AD009D8002B3AD0202B11D0B8
:103E400000220023CDE90023002319E0602B30D0AD
:103E5000802BF5D1073424F0070303F10804D3E9DC
:103E6000002303E094F90020D3170434002A73F1EF
:103E70000001E7DA524263EB4303CDE9002301235B
:103E800005930AF4C053B3F5805F00F0EB80B3F5FF
:103E9000C05F00F0EC80B3F5006F40F00381DDE916
:103EA00000230DF1360BCDE9022348E0B4F90020E0
:103EB000DAE722680434D317D8E7402B1FD009D89B
:103EC000FBB1202B14D00023002205930023CDE961
:103ED0000023D6E7602B14D0802BF4D1073424F0D4
:103EE000070303F10804D3E90023CDE9002304E02C
:103EF00022780023CDE900230434069BC0E7228802
:103F0000F7E72368002219460434CDE90012F4E7EC
:103F10008C7120009D712000BF712000DDE902013D
:103F20000A22002302F010F8DDE9020130320BF81A
:103F3000012D00230A2202F007F8CDE90201DDE994
:103F400002231343EAD10DF13603A3EB0B030293D3
:103F5000029B41F608029E4288BFF61A41F208030E
:103F60000AEA020298BF00269A4202D1002E08BF38
:103F7000012641F60801029B8A42334440F09680B4
:103F8000DDE900120A4300F091807D491AF4804F68
:103F90007C4A08BF0A464FF002080092069A82B196
:103FA000059A002A40F087800AF00602022A00F0F3
:103FB0008780062A744A009904BF11464FF0010811
:103FC0000091434499458CBFA9EB03094FF00009C8
:103FD0001AF00103059304D11AF0100F74D04E4467
:103FE0009946D7E90030B8F1000F05D04246009954
:103FF000984700287FF487ADB246029B1D44BAF172
:10400000100FD7E9003066D8BAF1000F05D052463C
:104010005E49984700287FF476AD3B68029A59467E
:1040200078684544984700287FF46DAD059B35447A
:10403000002B00F0888049463846FFF72BFD00280A
:1040400000F081805FE502F0070130310BF8011DBF
:10405000D10841EA4371D8080A46034652EA0301EF
:10406000F1D170E7DDE900230DF1360BF6E7484B9F
:104070001AF4804F0DF1360B464918BF1946DDE999
:10408000002352EA03003FF45EAF02F00F00085C29
:104090004FEA131C0BF8010D100940EA03700246A9
:1040A0006346EEE70DF1360B002350E74FF00008B2
:1040B000CDF8008072E74FF00108374A009280E7A0
:1040C0004FF00108354AF9E749463846FFF7E2FC68
:1040D000002886D017E510222C49984700287FF445
:1040E00012ADAAF1100A8AE7D4F800B00434BBF18B
:1040F000000F2CD0D84698F8003008F1010223BBFD
:10410000A8EB0B08002E02DBB04528BFB046C14526
:104110008CBFA9EB08094FF000091AF0010606D17F
:1041200049463846FFF7B6FC00287FF4ECAC3B6804
:10413000424659467868984700287FF4E4AC4544E5
:10414000002E7FF478AF4D44C5E49046D3E7DFF806
:1041500050B04FF00608D5E700F00F0C12F80CC075
:104160004FEA111E03F801CD4FEA101C4CEA017C06
:104170006046714678E5236804341D60ABE400BFF7
:10418000AE712000B1712000B67120007C7120005A
:104190008C7120009D712000B4712000717020008E
:1041A000B871200010B50E4C236813B90D4A136086
:1041B00010BDFEF71DFB2168D1E9002313448A6876
:1041C0001B1A1AB91844074B1860F1E7D2E900141A
:1041D0002144091A8B4228BF0B469268F1E700BFC1
:1041E000F8410020F4410020014800F051BA00BF1E
:1041F000684000202DE9F8430388054653B1592B48
:1042000047D1872920D1002024490B6863B918B110
:104210000B6001E0214A1360592301202B80BDE887
:10422000F88301203346F1E7D3E902649442F8D0E1
:1042300000B10B6099680029EED0C86890420ABFAF
:1042400089680B469960F5E78229E5D1134F4FF055
:104250000009B84600263C68002CDDD0204602F05C
:10426000CAF998B122468821E06800F0D1F958B91E
:10427000E060A3682EB1B360C4F80890FFF792FF26
:10428000E8E7C8F80030F7E7FFF7AEFF2646A46876
:10429000E2E7002303800320C1E700BFF8410020CC
:1042A00010B50446FFF7A0FFE3680B4A0BB1136893
:1042B00033B90A4B1B68E36013681460A36004E021
:1042C000A34206D1054A1268DA60BDE81040FFF744
:1042D00069BF9B68ECE700BFF841002080430020E5
:1042E000024B1868003018BF01207047F8410020C9
:1042F00010B50B4A04461368834208D183681360E3
:10430000FFF750FF0023C4E9023310BD1346002B12
:10431000F8D09A68A242F9D1A2689A60F0E700BF8B
:10432000F8410020F8B5038806461546CBB14A2B64
:104330002BD188291FD1174802F06EF90446C4B169
:10434000231D9D421FD12146124802F06FF9124DE4
:1043500062692F682A60A2690AB1E06990472F60FC
:1043600007E00C4802F058F9044634B901220B4B1F
:104370001A704A23338001200AE0A168201D02F050
:1043800022F92468F1E72468D9E700230380032099
:10439000F8BD00BFFC41002080430020FC4C002001
:1043A00010B50024054B06481C7002F032F9214676
:1043B000BDE81040034800F053B900BFFC4C00209A
:1043C000FC4100207840002070B50446E3610B4BAF
:1043D000049D1B78C4E905526BB1094D094B2E6849
:1043E000201D2B6002F0EFF82E602146BDE87040E2
:1043F000054802F02EB9A160F7E700BFFC4C002091
:104400008043002078400020FC41002013B5034C7D
:1044100024680094FFF7D8FF02B010BD804300204D
:1044200010B5084B04461B7843B10430FFF760FF1A
:104430002146BDE81040044802F0F8B8C0E9033353
:10444000F6E700BFFC4C0020FC41002038B5836833
:1044500004460D469BB10A4804600220A07304F193
:104460000C0098470238012801D9832D05D1214637
:104470002046BDE8384000F005B80123A37338BDDD
:10448000804300202DE9F8431C4F89463D682C46A7
:10449000844204D00CB9BDE8F8832468F8E7002C06
:1044A000F9D0174EA37BD6F8008063B10023A37325
:1044B0008DB9A3683BB14C4505D034602A468321B1
:1044C00004F10C0098473B68A3420ED123683B607F
:1044D000C6F80080DFE7AC4204D022468721284698
:1044E00002F07AF82D68E3E71346002BF0D01A6843
:1044F000A242F9D122681A60EAE700BF8443002093
:1045000080430020002238B50125084B1A70084B63
:104510001C6804B938BDE37B2BB1E5810022822100
:104520002046FFF793FF2468F3E700BF004D00200B
:1045300084430020024B1878421C1A70704700BF59
:10454000FE4C00208A22064B1A700023054A137085
:10455000054A1370054A1360054A1360704700BF8F
:10456000FE4C0020FD4C0020FF4C00208443002026
:10457000804300202DE9F0411B4D2B780BB1FFF754
:10458000C1FF1A4C22789AB10C21194E194F337879
:10459000013A59430133781803F01F0317F80180DB
:1045A0003370D0E90170227090B9134B1E6826B9A0
:1045B0002B7820781844BDE8F0812B780BB1FFF7F9
:1045C000A1FF30463A46414602F006F83668EEE76B
:1045D000B8F1810F08BF01233A4608BF83734146F3
:1045E00001F0FAFFE4E700BF004D0020FF4C00207F
:1045F000FD4C00200042002084430020024A034B6F
:1046000010781B7818447047FF4C0020004D0020A4
:10461000F0B50B4E3378202B0FD00C25094C0A4FE8
:1046200024781C4404F01F046C433D19C5E90120A3
:104630000020013339553370F0BD0120FCE700BF85
:10464000FF4C0020FD4C00200042002038B5034CF8
:10465000256801F0C1FF256038BD00BF8043002000
:1046600030B40A4C0A4625682B4683420CD04BB91D
:1046700050B101210560817320608381812130BCAC
:10468000FFF7E4BF1B68F0E730BC704784430020AD
:1046900038B1837B013B012B9FBF0123014AC373C8
:1046A00013707047004D0020024610B50648536055
:1046B0000468029B11609360026014B90846FEF71B
:1046C000D7F8002010BD00BF8843002010B5084C6B
:1046D000206858B100232360D0E90131984723684E
:1046E00023B1BDE810401868FEF7C2B810BD00BF86
:1046F0008843002070B505880446672D09D0792DC0
:104700002FD0002D33D1FFF715FF1B4B18701B4B1B
:104710001D601B4E194D08E00A282B680ED07E2B19
:1047200003DC5A1C2A60174AD054304602F012F8B3
:10473000431CF1D16723238001201BE05A1C2A600F
:104740000025104A2846D5540B4B1978FFF760FF17
:104750000D4B2A4685211868FFF75AFF18B97923AF
:10476000E9E78529E8D10022044B1A60D1E700234C
:104770000380032070BD00BF754E00208C430020D5
:1047800090430020014D0020804300200D2810B5EB
:10479000014616D00C4C237853B90C4801F0C7FFE2
:1047A00008B9012323700A48FFF772FF012010BDEA
:1047B0000A28F8D1054801F0BAFF0028F3D00023F9
:1047C000F0E70020F3E700BF814D00209043002078
:1047D0008840002008B505490548802201F0A0FF67
:1047E000BDE8084000210348FFF73ABF824D002092
:1047F00090430020884000202DE9F04104880646BF
:10480000772C20D07E2C3DD0002C4ED1FFF792FE8D
:10481000284D294B294FDFF8B08018702C602B6889
:1048200057F823202AB9264A1370772333800120B2
:104830003EE008F8034093680021802098472B68E9
:1048400001332B60EBE700231E4A1360194A136003
:10485000184B1B4A1B6812789A4204DC194B1B68E0
:10486000002BF0D1E1E7184AD256002A19DA134A90
:10487000002052F82320104B1978FFF7C9FE28B901
:104880007E23D3E70C4B1B788B42D0D1094B0E49CA
:104890001A688B5C03F07F038B540A4A1368013358
:1048A0001360044A13680133D1E700230380032017
:1048B000BDE8F0819C430020764E0020404000205F
:1048C000024E002098430020714E002010B40A4B85
:1048D0000A491A780023934203DA51F82340A04290
:1048E00008D107490748CA5C62F07F02CA5410BC6D
:1048F000FFF7CEBE0133EEE7024E0020404000201D
:10490000714E002098400020064A136843F00403CB
:104910001360054B186804331B6840EA032080B21B
:10492000704700BF00700D4014700D4010B5174A5D
:10493000136823F00C0313600122154B1A601A68E8
:10494000012AFCD10822134B13491A60E32203F514
:1049500005731A601A460B68DB07FCD50F4C102153
:1049600000232068013900F0010043EA00034FEA08
:1049700043039BB2F5D1002BF1D00949180A03F08B
:10498000FE0308600B60EF23136010BD00700D4044
:10499000A8200D4024860840648608409C86084074
:1049A00014700D4070B50B4C0023616E0A4A04F17F
:1049B0003800FFF72BFDFFF7A7FF616E0023B0FB68
:1049C000F1F5064A05FB110104F11800BDE870403D
:1049D000FFF71CBDA0430020E1492000F949200059
:1049E000044B5A6E196E5200914294BF59665A6632
:1049F000FFF7D8BFA043002010B500F093FA00F0F5
:104A000021FA00230380044600F046F9228893002F
:104A100008B1017B51B9981C80B200F0D3F923880A
:104A200073B1BDE81040074800F044B881882344C2
:104A30005980C18801329980228001F026FEE5E785
:104A400010BD00BFA04300209DF80030012B04D111
:104A5000024B9A6D5A66FFF7A5BF7047A04300202E
:104A6000F8B50F4616461D46064C0146064A204636
:104A700000F00EF8C4E9167625660448BDE8F84053
:104A800000F004B9A0430020546F2000494A2000E0
:104A900070B505460C461646044A00F095F86E615E
:104AA0002046BDE87040024901F0F3BF5C6F200072
:104AB000F271200010B5044604491A2000F08EFA65
:104AC0002046BDE8104001F0D8BF00BF6E4E002068
:104AD000054B10B51B689847044618B18188012022
:104AE00000F06EFA204610BD646F200038B5064B0A
:104AF00005465B6898470446A988012000F060FAE3
:104B0000201C18BF012038BD646F2000014B9B683A
:104B1000184700BF646F20000378407840EA032004
:104B2000054B00FA01F1985CC2F1080200EA21206D
:104B30001041C0B2704700BFF6712000F8B50646BC
:104B40000A480D46174601F067FD044630B93A465B
:104B500029463046BDE8F84001F096BFA3680BB186
:104B600028469847204601F090FDEEE70C440020CF
:104B700038B5FFF7ADFF0546094801F04DFD044685
:104B800028B95DB12846BDE8384001F078BF6368B8
:104B900003B19847204601F078FDF0E738BD00BF2B
:104BA0000C44002010B50446FFF7A0FF38B100F018
:104BB00025F9034B034821469B689847012010BD07
:104BC000D86F20003D4B200070B505460C461646B8
:104BD00000F010F82E612046BDE87040014901F058
:104BE00058BF00BF04722000014801F012BD00BF91
:104BF0001044002081800146014801F02ABD00BF19
:104C0000104400200146014801F010BD104400206E
:104C100010B50446054801F0FFFC00B910BD8388BB
:104C2000A342FBD001F031FDF7E700BF10440020A4
:104C300070B504461B200D4600F0DCF9064901F072
:104C400062FF38B1A3691B6823B129462046BDE83D
:104C50007040184770BD00BF6E4E002070B505460D
:104C60000C461646044AFFF713FFAE612046BDE826
:104C70007040024901F00DBF7C6F200006722000D9
:104C8000014801F0C6BC00BF14440020014B18606D
:104C9000704700BF18440020014801F0BDBC00BFB0
:104CA000144400202DE9F04106460C480C461746F6
:104CB00001F0B2FC08B9BDE8F0818388A34209D1B4
:104CC0008568002DF7D03B4622463146AC46BDE80C
:104CD000F041604701F0D9FCECE700BF144400202C
:104CE00008B5044801F0D4FCBDE80840024801F0D2
:104CF000CFBC00BFB4400020A840002038B50E480B
:104D000001F0D6FC054650B10C4801F0D1FC044638
:104D1000286030B92946084801F0DEFC25462846BF
:104D200038BD00F097F804F1B601A4F8800004F152
:104D3000820000F01DF9F2E7A8400020B4400020F6
:104D400010B501460446074801F0DCFC48B1216873
:104D5000054801F0C1FC2146BDE81040014801F0C2
:104D6000BBBC10BDA8400020B440002010B50146D7
:104D70000446094801F0C6FC68B12468B4F8801004
:104D8000204600F0DFF804F1B60104F18200BDE82E
:104D9000104000F001B910BDA840002010B507492F
:104DA0000B88834208DB064C80B222880244181A22
:104DB00008800120228010BD0020FCE7EC4C002080
:104DC000EE4C0020014B1880704700BFEC4C0020D7
:104DD000004870473C440020014B1888704700BFD2
:104DE000EC4C0020034A044B10781B781844C0B2E6
:104DF000704700BF134E0020EE4C00202DE9F0411B
:104E00000C4F3A8872B100240B4B0C4EB3F8008063
:104E10000B4B1D78354421B2414504F1010403DBFD
:104E200000233B80BDE8F081FFF7DCFF3044435CAA
:104E30006B54F0E7EE4C0020EC4C00203C4400208A
:104E4000134E002008B5FFF7CDFF014B184408BDF5
:104E50003C440020F8B50C4B05461E780B4B1F88D0
:104E6000F419802C0DDC3246094901F021FAFFF7D4
:104E7000E9FF354401463A46284601F019FA204632
:104E8000F8BD0024FBE700BF134E0020EC4C0020CF
:104E90003C44002008B5FFF7A5FF024B1B881844CF
:104EA00080B208BDEC4C002010B50146FFF7F2FFC0
:104EB0004318802B0FDC094B013800B25A18040448
:104EC00005D5074B187808441870012010BDC45C44
:104ED00014540138F3E70020F8E700BF3C440020F9
:104EE000134E002038B50C4D0C4C342200210C48D8
:104EF00001F054FA2946204601F002FE2946A01C82
:104F000001F0FEFD2946201D01F0FAFD2946A01DF5
:104F1000BDE8384001F0F4BDF86F2000324E0020AB
:104F20003A4E00200023044A1380044A1380044AA6
:104F30001370FFF7D7BF00BFEE4C0020EC4C0020F1
:104F4000134E002038B50C460546FFF7EBFF802CCA
:104F500028BF802429462246034801F0A9F9034BC3
:104F600020461C8038BD00BF3C440020EC4C002093
:104F700010B5074B03F1340253F8044B934240F849
:104F8000044BF9D1034A13680B6053684B6010BDA2
:104F90003A4E0020324E002010B5074B00F134028B
:104FA00050F8044B904243F8044BF9D10B68034A84
:104FB00013604B68536010BD3A4E0020324E002003
:104FC000024B23F810100120704700BF3A4E00201A
:104FD000014B33F8100070473A4E002008B5044BDF
:104FE0001A3803EB400001F08BFD012008BD00BF23
:104FF000324E0020024B1A3803EB4000704700BFCE
:10500000324E00200149024801F07DBDF86F2000BA
:10501000344E0020084B10B51B689847074B5B685F
:105020009847074B5B689847064B5B689847BDE815
:105030001040054B5B6818478C6E2000AC6F200059
:10504000D86F2000906F2000706F20002DE9F04194
:10505000FDF7CEFB002504460C27DFF83C8007FB5C
:1050600005861A20FFF7C6FF314601F04CFD70B1EE
:105070000A20FFF7ADFF337A83420BD17068201A04
:10508000B0F5206F8CBF00200120BDE8F081013514
:10509000102DE4D10020F8E7BC440020F8B5164EEE
:1050A000002537460C241A20FFF7A4FF04FB0561F6
:1050B00001F029FD013508B9102DF3D104FB05F3EA
:1050C0000C3B0FD10A20FFF783FF3872FDF790FBEE
:1050D00078601A20FFF78EFFBDE8F84001460648C9
:1050E00001F00EBD9819014651F80C2D9A514A68ED
:1050F00042608A688260E3E7BC44002030B591B02A
:10510000054600F091F84FF6FF73984204D14FF036
:10511000FF34204611B030BD40220021684601F026
:105120003DF93E4B1A782AB901221A70FFF7ECFBC1
:105130003B4B18701420FFF74BFF8DF81000132025
:10514000FFF746FF8DF81200FFF75CFF04460028CA
:1051500045D000238DF813308DF81530002301243D
:105160008DF814308DF818404DB10A20FFF730FF4C
:1051700000283CD00A20FFF72BFF8DF81A000224EC
:105180008DF8194000F050F8ADF81C00FFF73AFF19
:10519000002839D04FF6FF738DF81740ADF8003076
:1051A00000F042F81F49ADF81E0002A801F0A8FC6B
:1051B000FFF748FE0E90FFF70FFE0F90684601F0D4
:1051C0007FFD0446002DA4D0FFF76EFE00289ED080
:1051D000FFF7FEFD0146684601F08BFD99E70B20C5
:1051E000FFF7F6FE8DF815408DF81300B6E70C4B6F
:1051F0001A7802B91C7019780A204A1C1A708DF8A6
:105200001A10FFF7DDFEBAE71B20FFF7F3FE014699
:10521000684601F075FC8DF81740C1E7144E002078
:10522000154E00206E4E0020014B1888704700BFBD
:10523000F44000202DE9F041012986B006460F46D2
:10524000144603DC002006B0BDE8F081037803F0CB
:1052500007028DF80C20C3F3C0028DF80D20C3F3B4
:1052600000128DF80E20C3F34012C3F380138DF8A3
:10527000103043788DF80F20C3F340028DF81220D0
:10528000C3F3810203F001058DF81320C3F301126B
:105290009B098DF815308DF814208DF8115003AB53
:1052A00003CB1B88206161612383002D44D0B51C92
:1052B00002AA01A903A801F083FC9DF81380B8F1AC
:1052C000000F4CD0029B23B16A7815F8023B03EB28
:1052D0000223B8F1020FA38332D13249204601F0F4
:1052E0000FFC6B78237015F8023B63709DF81580F6
:1052F000B8F1000F4DD0019B002B37D06A7815F81C
:10530000023B03EB0223029A9BB2E38302B9A3831D
:10531000B8F1020F2DD1234904F1080001F0F0FB90
:105320006B78237215F8023B6372A81B3B1A874205
:10533000C4E90E5386DB86E7B378F51CA376B7E79E
:10534000B8F1030FD2D105F108021346611E13F81C
:10535000010D9D4201F8010FF9D11546C6E711492B
:10536000204601F0CDFBA4F81C80BFE7A38BE383AC
:10537000CEE7B8F1030FD8D105F10802134604F1C6
:10538000080113F8010D9D4201F8010BF9D11546F2
:10539000CBE7044904F1080001F0B2FBA4F81E8039
:1053A000C3E700BFF86F2000014BDB68184700BF60
:1053B000D86F2000014B5B69184700BFAC6F20001D
:1053C000014B9B69184700BFAC6F2000024BD869A6
:1053D00000B10047704700BFAC6F200070B590F877
:1053E00029500F4B042D28BF04250124DB690646F4
:1053F0009847AC40651E002814BF044601246C4346
:1054000005D0FFF781FAB0FBF4F303FB1404334635
:10541000214606F10800034ABDE87040FEF7F6BFDA
:10542000AC6F2000955520002DE9F04107461B2068
:105430008846FFF7DFFD484B05461A78474C22B9EE
:1054400001221A70FFF760FA208023880BB901232C
:10545000238021880A204B1C2380FFF7B1FD4048A0
:1054600001F0DAF80446002845D13E4801F020F961
:105470000446002865D02946201D01F041FB002389
:1054800004F12C00C4E90B30238501F0C2F8214659
:10549000334801F0DEF8206B01F0F0F8072850DC0B
:1054A000314801F005F9054600283ED02F4801F0AB
:1054B000FFF8A860A8B3FFF721FC686068B3092073
:1054C000AE68FFF785FD00BB08233372C6E900789C
:1054D0000D20FFF77DFD01282946206B1AD101F030
:1054E000C5F8206B01F098F8854232D12046BDE81E
:1054F000F041FFF773BF2946201D01F004FB00288F
:10550000C9D1204601F0C1F8ACE70920FFF760FDE2
:105510003072DBE701F09DF8E3E7A968134801F07A
:10552000DBF82946104801F0D7F8206B01F0A6F807
:1055300038B921460A4801F079F82146094801F0B6
:10554000CBF841463846BDE8F0410123042201F082
:1055500040BCBDE8F08100BF164E0020F04C00209A
:10556000DC450020CC400020D8400020C040002076
:1055700008B5054801F08CF8044801F089F8BDE849
:105580000840034801F084B8D8400020C040002003
:10559000CC40002013B5044668B1006B01F03CF824
:1055A000024640B12146054B0548DB68019302B035
:1055B000BDE81040184702B010BD00BFAC6F20001E
:1055C000415620002DE9F0410D4614468B68804677
:1055D000D3E90067106B01F029F86868FFF7B0FBAA
:1055E000A968134801F078F82946124801F074F8C8
:1055F000206B01F011F868B1002320462385FFF7E6
:10560000EDFE94F82830424639463046BDE8F04178
:1056100001F0DFBB04F10800FEF702FF2146064857
:1056200001F004F82146054801F056F8E9E700BF0B
:10563000C0400020D8400020DC450020CC400020A5
:105640002DE9F0410E461746044620B1006B00F0EC
:10565000E3FF054608B9BDE8F0810A21686801F05A
:1056600049FA80460A20FFF7B3FC804546D0284619
:1056700001F00BF8EDE794F8282000203A4484F874
:1056800028202946224684F82900BDE8F041FFF78A
:1056900099BF002284F8292094F828203A44D2B2F5
:1056A00084F828201B7A93421CD8224629460220DF
:1056B000EBE794F829203A44D2B2052A84F829204D
:1056C00007D9002194F8282084F82910013284F8A1
:1056D000282094F828201B7A9A4203D32246294690
:1056E0000120D2E72046FFF779FE6868BDE8F04167
:1056F00001F0ECB9224629463046C6E7AB68002BDC
:10570000A9D0032EF6D801A252F826F07756200031
:10571000B3562000935620005756200013B500249E
:10572000094B1C70094B1C80FDF790F8009400F5A4
:105730008051074B01220748FEF7B6FF0122064BB6
:105740001A7002B010BD00BF2E4E0020F24C002097
:10575000055C2000CC460020294E0020074B82B07B
:105760001B784BB1064B1A7832B901221A70054BDF
:105770001B6A019302B0184702B07047294E0020FF
:105780002E4E00208C6E2000094B82B01B786BB12E
:10579000084B1A7852B1084A127802F0FF012AB970
:1057A0001970064B5B6A019302B0184702B070474C
:1057B000294E00202E4E00202A4E00208C6E200004
:1057C00008B5FFF7E1FF0022014B1A6008BD00BFDA
:1057D000DC460020044B1B7823B9044B1B680BB933
:1057E000FFF7D2BF704700BF304E0020DC460020DC
:1057F0000022094B82B01A70084BC2B21A70084AD4
:10580000084B28B101211B6A1170019302B018479F
:1058100010705B6AF9E700BF294E00202A4E002075
:105820002E4E00208C6E200037B50B4B1A7802F0FC
:10583000FF056AB901241C70084B1D70FDF706F8BE
:10584000009500F58051064B22460648FEF72CFFD6
:10585000012003B030BD00BF294E00202A4E002099
:10586000055C2000CC46002037B50B4B05461B7865
:105870000C4673B1FCF7EAFF231A022B4FF000032A
:1058800048BF841C00930122044B21462846FEF7A2
:105890000BFF03B030BD00BF294E0020055C200087
:1058A00013B5224C22680AB9FFF76EFFFFF794FA8E
:1058B000032823D0FFF7EEFA00B31D4B9B689847EF
:1058C00000281BDBFFF788FAC0B1FFF7E3FAA8B1A5
:1058D0001B20FFF78FFB174901F015F950B113207A
:1058E000FFF776FB206058B9FFF74EFF1248FEF72E
:1058F00097FD0DE0FFF786FB0028F0D102B010BD48
:10590000FFF72CFF00230D4A04210B48FEF77EFD14
:10591000FFF79CFB0028F1D1FFF7C0FB084BDB68C9
:10592000019302B0BDE81040184700BFDC460020DC
:10593000CC6F20006E4E0020A8460020C1572000EA
:10594000906F20002DE9F04F744E89B033780390AA
:105950003BB9734B1B7823B90524204609B0BDE839
:10596000F08FFFF797FA0028F6D06E491A20FFF75C
:1059700035FBFFF747FB04460C20FFF729FBA8B1D6
:10598000FFF788FA81464FF00108674D6F68FFF70F
:105990001FFA4946B847654FAB6987F80080009306
:1059A000984768B100233B700124D6E701210B2002
:1059B000FFF706FB5E4B5B6898470028E0DACBE711
:1059C000EB69019398470028ECD1FFF7DDFE3378AF
:1059D00086F80080DBB20293039B7BBB4FF0060886
:1059E0006FF0030A6FF00F0BFCF730FF0490FFF726
:1059F000B5FE0498AAEB00030493FCF727FF049B71
:105A0000C342F9D46B69984748B90090FFF7BCFED0
:105A100000983870FFF7B8FE029B3370C4E7FFF7B9
:105A2000B3FEFCF713FFABEB00030493FCF70EFF90
:105A3000049BC342F9D4B8F10108D5D10CB9FFF7E2
:105A40008DFE0A20FFF7C4FA5FFA80FBFDF778F8B5
:105A5000FCF7FCFE8046374B1B1A0493DFF8D8A0F6
:105A6000AAEB080AFCF7F2FE1AEB000F44D5FDF78B
:105A700067F8002C38D0AB6848469847FCF7E6FE3C
:105A80006FF00C031B1A0593FCF7E0FE059BC34265
:105A9000F9D4002CE6D1009B984788B3FCF7D6FEDA
:105AA0006FF01408A8EB0008FCF7D0FE18EB000F0D
:105AB000FAD42B69032107A89847032829D19DF818
:105AC0001E305B4525D100254FF00108FFF75CFE35
:105AD000029B337000233B70002D7FF465AFD4B977
:105AE000984508BF022438E7039B002BC3D0FCF77E
:105AF000ADFE049BC342BED400254FF00008E5E78D
:105B0000019B98470028C9D16B6998470028A5D107
:105B1000C4E70125F1E72C461FE700BF294E00200E
:105B20002A4E00206E4E00208C6E2000304E002049
:105B3000CC6F2000DEFDFFFFB0EFFFFF2DE9F04747
:105B4000074688461446002A56D02C4B1E6856B18C
:105B50005068FFF70BF901231A4641463846BDE865
:105B6000F04701F036B91546DFF894A0284600F05A
:105B70008CFD81466868FFF7F9F80C20FFF728FADA
:105B8000C8B9B9F1000F03D001211320FFF718FAAB
:105B900001210B20FFF714FADAF8043098470028A7
:105BA00002DA01230522D8E701210C20FFF708FAC9
:105BB000686800F091FF4D46002DD7D1204600F0D7
:105BC00064FD05466068FFF7D1F81320FFF700FA7F
:105BD00081463046FFF7B6FE032804460CD0024645
:105BE00001234146384601F0F4F82CB925B12C4682
:105BF0000126B9F1000FE1D1BDE8F087DC460020B5
:105C0000CC6F200040F2B1122DE9F3476A4C0546F3
:105C10002388934213D0B3F5D97F03D2002B75D0DC
:105C2000002395E040F2E31293421DD040F202229D
:105C30009342F5D10023614A1370614A02E0604A41
:105C40001378013313705E4B1B78012B63D95B4BC8
:105C50001B78002B47D0FCF7F9FD5A4B5A4A1860C5
:105C600000231370594A1370594B5A4F1B784BBB82
:105C70003B783BB3FCF7EAFD6FF4CC72514B1B68E9
:105C8000C01A104400281DDA534EDFF83C917369A6
:105C90009847B04600285FD099F80030013389F862
:105CA00000304A4ED8F818A0337801333370D0470B
:105CB00010B1002389F8003099F80030052B4ED937
:105CC000FFF788FD3B7873B1434EB36998470028CE
:105CD0006BD0FCF7BBFD3B4B1B68C01A6FF4CC7359
:105CE0001844002865DA3D4E336803F5805333606D
:105CF000FCF7ACFD3368C3F1A003C3429AD5316809
:105D00002846FFF7B1FD40F2022321E0FCF79EFD9B
:105D1000324B18608EE72E4B1A7882B9304A1268DF
:105D20006AB91B780BB9FFF719FD2B4B5B699847D4
:105D300018B90122214B1A7089E7FFF74BFDFCF7D8
:105D400085FD00F110012846FFF78EFD40F2B113EA
:105D5000238002B0BDE8F08789F80000A1E733781E
:105D6000D8F81C800A2B04D9D04710B9C0470028A6
:105D7000A6D0C0470028A5D11A4B1B7893B12E6836
:105D8000FCF764FD331A13F1120F4FF0000348BF04
:105D9000811C009358BF06F11401134B01222846C1
:105DA000FEF782FC40F2E313D2E7F369984700283C
:105DB0008FD1FFF70FFD96E7F24C00202C4E00200C
:105DC0002B4E0020D84600202F4E00202D4E0020C4
:105DD000304E00202E4E00208C6E2000C846002041
:105DE000DC460020294E0020055C200008B5024B4F
:105DF0001B689847023008BD846F200038B50C4BF3
:105E00009B689847041E02DA4FF0FF3038BDFFF759
:105E100019F803780546002BF6D10220FEF7BEFFE5
:105E20000028F1D06878FEF7CDFFA01CEEE700BF98
:105E3000846F200070B50220FFF736F810B94FF0DC
:105E4000FF3070BDFEF7C4FF002505700446FEF765
:105E5000C3FF6070FFF71EF80446FFF7C7FF20443A
:105E60002A2812DCC0F12B00C4B2FEF7EBFF064675
:105E7000FEF7B2FF22462946304400F08FFAFEF7C3
:105E8000ABFF204480B2FEF79DFF044B5B68984750
:105E9000041ED4DBFEF7B2FFA01CD2E7846F200003
:105EA000014B9B68184700BF706F200070B5044617
:105EB0000D4614200121FFF783F8034B29462046A5
:105EC000BDE870409B681847906F2000832910B58B
:105ED000044602D1094800F0EDFD23882BB1232BA5
:105EE00008D000230320238007E0054A89210348C6
:105EF000FEF7B4FE23230120238010BDE0460020DE
:105F0000F06F2000F8B50C4605460220FCF7BEFAFB
:105F10006678FEF797FF07460420FFF759F83A46E0
:105F200003B231460648FDF7A5FD04210548FFF7F9
:105F300009F821462846BDE8F84000F0BDBD00BF85
:105F4000247220002E72200053B94AB9002908BFDC
:105F500000281CBF4FF0FF314FF0FF3000F074B944
:105F6000ADF1080C6DE904CE00F006F8DDF804E0B0
:105F7000DDE9022304B070472DE9F0478C46044662
:105F8000089E002B4BD18A42154667D9B2FA82F29D
:105F90004AB1C2F1200701FA02F320FA07F795404F
:105FA00047EA030C94404FEA154EBCFBFEF71FFA7C
:105FB00085F80EFB17C307FB08F9210C41EA0343E0
:105FC000994509D9EB1807F1FF3180F01C819945FB
:105FD00040F21981023F2B44A3EB0903B3FBFEF00F
:105FE0000EFB103300FB08F1A4B244EA0344A142C3
:105FF00009D92C1900F1FF3380F00781A14240F24A
:10600000048102382C4440EA07400027641A1EB17C
:106010000023D440C6E900433946BDE8F0878B42EF
:1060200009D9002E00F0EC800027C6E900013846AF
:106030003946BDE8F087B3FA83F7002F48D18B4289
:1060400002D3824200F2FB80841A61EB0303012039
:106050009C46002EE0D0C6E9004CDDE702B9FFDE29
:10606000B2FA82F2002A40F08F800127491B4FEAE2
:1060700015481FFA85F9B1FBF8FE08FB1E1109FB54
:106080000EF04FEA144C4CEA0143984207D9EB1842
:106090000EF1FF3102D2984200F2CD808E461B1ADB
:1060A000B3FBF8F008FB103309FB00F9A4B244EA93
:1060B0000344A14507D92C1900F1FF3302D2A145B1
:1060C00000F2B6801846A4EB090440EA0E409EE7B1
:1060D000C7F12005BB4022FA05FC4CEA030C21FA6B
:1060E00005F44FEA1C4EB4FBFEF91FFA8CF80EFBC8
:1060F000194420FA05F3B94009FB08FA19430B0CBF
:1061000043EA0444A24502FA07F200FA07F30BD966
:106110001CEB040409F1FF3080F08880A24540F2B6
:106120008580A9F102096444A4EB0A04B4FBFEF0E3
:106130000EFB104400FB08FA89B241EA0444A24570
:1061400008D91CEB040400F1FF316BD2A24569D9D8
:106150000238644440EA0940A0FB0289A4EB0A0427
:106160004C454146CE4654D351D0002E69D05A1AE0
:1061700064EB0E0404FA05F522FA07F3FC401D4314
:10618000C6E90054002747E79540C2F1200321FAF1
:1061900003F04FEA1548B0FBF8F71FFA85F908FB42
:1061A000170024FA03F3914007FB09FC0B43190C79
:1061B00041EA00418C4504FA02F407D9691807F155
:1061C000FF3031D28C452FD9023F2944A1EB0C017D
:1061D000B1FBF8F008FB101C00FB09FE99B241EA84
:1061E0000C418E4507D9691800F1FF3318D28E454E
:1061F00016D902382944A1EB0E0140EA07473AE7D5
:106200003746304608E70F46E6E61846FBE64345C4
:10621000ABD2B8EB020169EB0C0201389646A4E759
:106220001846E8E7084695E70746CFE781467BE74B
:1062300002382C4447E7AEF1020E2B442FE73846D4
:1062400007E73746E8E600BF704700BF032A70B48F
:1062500014D940EA0105AD0704460B4622D11D685A
:1062600026681946AE42204603F1040304F10404F3
:1062700018D1043A032A20461946F0D8541E72B1A8
:1062800002780B789A4208BF641806D00CE010F828
:10629000012F11F8013F9A4206D1A142F7D1002007
:1062A00070BC7047541EEBE7D01A70BC704700BF3B
:1062B000844641EA000313F0030349D1403A23D353
:1062C0000B6803604B6843608B688360CB68C36076
:1062D0000B6903614B6943618B698361CB69C3615E
:1062E0000B6A03624B6A43628B6A8362CB6AC36246
:1062F0000B6B03634B6B43638B6B8363CB6BC3632E
:1063000040304031403ADBD230320BD30B6803606F
:106310004B6843608B688360CB68C360103010317A
:10632000103AF3D20C3205D351F8043B40F8043B49
:10633000043AF9D2043208D0D2071CBF11F8013B4D
:1063400000F8013B01D30B8803806046704700BF13
:10635000082A13D38B07B1D010F00303AED0C3F1DA
:106360000403D21ADB071CBF11F8013B00F8013B04
:10637000A4D331F8023B20F8023B9FE7043AD9D37B
:10638000013A11F8013B00F8013BF9D20B78037098
:106390004B7843708B78837060467047F0B4860703
:1063A00043D0541E002A3ED0CAB2034602E014F184
:1063B000FF3438D303F8012B9D07F8D1032C2BD9D8
:1063C000CDB245EA05250F2C45EA054516D9A4F1BD
:1063D00010073F0903F1200606EB071603F1100230
:1063E00042E9045542E902551032B242F8D104F0B4
:1063F0000F040137032C03EB07130DD91E46224669
:10640000043A032A46F8045BFAD8221F22F003025A
:106410000432134404F003042CB1C9B21C4403F841
:10642000011B9C42FBD1F0BC704714460346C5E7F4
:10643000FEE708B5FBF72AFFF7B500240646254618
:1064400027463046FCF710F80197019BAB4215DB5D
:106450003046FCF711F8C5F5C8750197019B9D42C0
:1064600011DC0134B4F5487F01D103B0F0BDB4F5BF
:10647000C87FCCBFC4F548752546E2E700BF019B45
:1064800001330193E1E700BF019B01330193E5E78D
:10649000FCF7B0B8FCF758B970470020FCF738BAE1
:1064A0000120FCF735BAEFF3108062B67047EFF3C6
:1064B000108072B670470020FCF716BC0120FCF774
:1064C00013BC0220FCF710BC0320FCF70DBC10B578
:1064D0000C46FCF729FE2046BDE81040FCF756BEEE
:1064E00010B50446C1B20020FCF710FB204610BDD9
:1064F00070B5054604464618601B0CB1237803B9F5
:1065000070BDB442FCD018460134FFF7E9FFF3E751
:1065100070B505460446661B14F8010B20B1FFF761
:10652000DFFF661B002CF6D10A20FFF7D9FF3046AB
:1065300070BD002070470120704710B5044630221E
:1065400000210E20FCF722FC6CB1012C0CD142F290
:1065500010730011A0F28E5058432A2390FBF3F0E1
:1065600000F5C340283010BD4FF00040FBE700208D
:1065700070470120704710B50446302200210F20DB
:10658000FCF704FC5CB1012C03BF40F6F253584306
:1065900047F6F0734FF0004008BF90FBF3F010BDDA
:1065A00008B5084612B11146FFF7A2FF002008BD4A
:1065B00010B5041F54F8040F00B910BD0021FEF7F8
:1065C0004FF8F7E7704710B5044600F00DF8204685
:1065D000BDE81040FDF764BE837BDB0701D5FDF706
:1065E00035BF7047FFF758BF10B541600446FCF750
:1065F000FFF8206010BD10B50446FCF7F9F82368D9
:10660000C3F101030344606898422CBF00200120BD
:1066100010BD00230360704700687047006808B928
:10662000704718460368002BFBD17047036810B50C
:106630003BB1002499421A6806D11CB902600023BC
:106640000B6010BD2260FAE71C46002AF9D0134601
:10665000F0E738B50546FFF7E9FF00230B60FFF7C9
:10666000DDFF08B9296038BD0160FCE738B5044694
:10667000FFF7DCFF03680B60216038BD0368002072
:1066800003B9704701301B68FAE700B10068704732
:1066900010B50446428800214068FFF77FFE23883A
:1066A0006288A0685A43BDE810400021FFF776BE1B
:1066B000002310B54188994201DC002009E04268BE
:1066C000D418D25C32B9012222700288806803FBA0
:1066D000020010BD0133EEE7002330B58268448824
:1066E0009C4201DCFF2008E08A4207D14168CA5C75
:1066F0000AB1013ACA544268D05C30BD0588013302
:106700002A44EDE782688A4208D84388008800FB63
:10671000032081422CBF00200120704700207047D9
:106720000023013A0160027143718371704710B513
:10673000427983790479D31A34EA030308D00368D1
:10674000995443790279013313404371012010BDFC
:106750000020FCE7837942790179D21A0A421FBFEF
:106760000268D25C01330B401ABF837110464FF0B0
:10677000FF3070477047F8B50F46FEF763FB068899
:106780000446FEF729FBB3000233834203D80025F9
:106790000234AE4200DCF8BD54F8041B38460A0C43
:1067A00089B2FEF77FFA0135F3E743695B6803B10D
:1067B0001847704713B504461A20FEF71BFC014624
:1067C00001A800F09DF963691B6813B101A9204677
:1067D000984702B010BD00F04EB9FEF705BA831C11
:1067E0000020023313F8042C02B9704713F8032C6D
:1067F0001044F6E7072B2DE9F8430746884615466F
:106800001C4607DC1A4629464046FEF785F93870D3
:10681000BDE8F883DE10BAB14FF0000908EB0900BB
:1068200008222946FEF778F907F8090009F101095D
:106830004E45F3DC14F00702EAD0294608EB0600C7
:10684000FEF76AF9B855E3E718F805307B550135CE
:10685000AE42F9DC14F00702DAD00021EEE72DE9B0
:10686000F743FEF7EFFA04460220FEF797FA20B945
:106870000025284603B0BDE8F0836378207800EB5C
:10688000032080B2FEF7C4F905460028F0D0FEF7D9
:10689000D9FA8046287B10F0070318BF012303EBC9
:1068A000D000FEF77BFA0028E2D00026B146AC68A3
:1068B000023414F8023C002BDBD0192B14F8017CB5
:1068C00008EBE60106F007020BD901A83B46FFF7EB
:1068D00091FF01A914F8020CFEF780FB3E4402343C
:1068E000E7E73B4601A8ADF80490FFF783FF9DF86A
:1068F00005109DF8043014F8020C43EA0121FEF75C
:106900005FFBEBE7072B2DE9F0410FDC1478C1F1B9
:106910001001CB1A04FA03F30178C3F307220A43E8
:10692000417802700B434370BDE8F081DD1081B304
:10693000044602F1FF3CC1F1080E261AB54218DCEC
:1069400013F0070325EAE575EED0525DC3F10806A2
:1069500031440A41D2B2C3F11003415D02FA03F39C
:10696000C3F307220A434419425562781343637004
:10697000DAE71CF8016F94F8008006FA0EF6C6F309
:10698000072747EA0807277014F8017F3E4326705F
:10699000D3E7545C44540131A942FADB13F00703F6
:1069A000C2D0525DC3F108042241C3F11003445D1B
:1069B00002FA03F3C3F307222243411942554A78EE
:1069C00013434B70B0E72DE9F743047B054614F001
:1069D000070318BF012303EBD404A01CFEF764FADD
:1069E000A8B1FEF7F5F9AB880370AB881B0A4370BA
:1069F000FEF7EEF9871C224600213846FFF7CEFC51
:106A0000AC680025023414F8020C18B9012003B058
:106A1000BDE8F083192814F8016C07EBE50805F0D0
:106A200007090AD9FEF7E6FA3346024649464046C8
:106A3000FFF768FF35440234E5E7FEF7C9FA8DF841
:106A40000400000A8DF80500334601AAEEE710B5F0
:106A5000FEF746F9FEF766FAFEF712F9FFF7BDFEFC
:106A6000BDE810404FF4E1234FF4F0524FF40071B1
:106A70000220FDF7F5BFFEF7C5B8FEF793B803692E
:106A80001B6803B11847704703695B6803B1184777
:106A9000704738B50D46FEF7BBF8044620B1856057
:106AA0002846FEF733F8207338BD83695B6803B16D
:106AB00018477047FFF78FBE10B504461B20FEF73E
:106AC0008DFA2046BDE81040FDF7F4BF006800F1E4
:106AD000B6018230FEF74CBA10B5046804F1B60175
:106AE00004F18200FEF744FA2046FEF7B3F9A4F859
:106AF000800010BD036803EB4101B1F882007047CC
:106B00000B880380704708B50222FFF79FFBB0FA9D
:106B100080F0400908BD30B591B0FEF793F9044606
:106B2000FEF75AF96A4601462046FEF783FB044603
:106B300020B94FF0FF34204611B030BDFEF72EF9DA
:106B40000028F6D09DF810101420FEF739FA9DF8B1
:106B50001730ABB1BDF81C50FEF766FB854205D07F
:106B60004FF6FF73BDF81C209A42E2D169469DF8AA
:106B7000170000F096F818B969461B20FEF72EFAA8
:106B800002A91A20FEF72AFA9DF812101320FEF728
:106B900017FA9DF8153053B99DF81A100A20FEF720
:106BA0000FFA9DF81A100E20FEF70AFAC3E74FF607
:106BB000FF71F3E70120FEF7A1BA0020FEF79EBAAD
:106BC00030B578B1037A022B14D10479C57954B960
:106BD00015BB447A2B46003418BF012401B10C6068
:106BE00002B1136030BDCDB9437A2C46B3FA83F3BA
:106BF0005B09F3E70378022B10D0037953B9447A89
:106C000014F0030418BF0124C37913F0030318BF61
:106C10000123E3E70024F7E70123DFE700231C4615
:106C2000DCE7002337B50B608B80437D0D46D90729
:106C30005CBF01232B70037E0446012B0BD8C37D60
:106C40009A072CD0437E9B0729D0C28B838B9A4214
:106C500025D10123237501AA694604F11000FFF72D
:106C6000AFFF009B0BB10223EB70019B0BB1022322
:106C70006B70E37D03F00303022B03D0032B0CBFE7
:106C800008230023AB70637E03F00303022B03D0C1
:106C9000032B0CBF082300232B7103B030BD00234E
:106CA000D8E702280CBF022308230B448B4201D1F2
:106CB0000120704713F8012DFF2AF7D000207047FC
:106CC00007B56946FFF7ADFF9DF800309DF801005C
:106CD000023303449DF8020003449DF8030003447B
:106CE0009DF8040003449DF80500184403B05DF8C6
:106CF00004FB37B504460D466946FFF792FF637CF7
:106D0000A27CDB00120102F0100203F0080313431F
:106D1000227C02F007021343E27C520102F02002BF
:106D20001343227D920102F0400213432B70637DD6
:106D3000627E03F0010343EA8213A27D520002F057
:106D400002021343E27D920002F00C021343227E02
:106D5000120102F0300213436B709DF80030012BDA
:106D600002BFA37E0320AB709DF8013018BF022044
:106D7000022B08D1A28B431C2A54A28BDBB2023017
:106D8000120AC0B2EA549DF802301844C0B2C21AC6
:106D9000D2B2ABB99DF80330022B08D1E28B431C71
:106DA0002A54E28BDBB20230120AC0B2EA549DF8D8
:106DB00004301844C0B2C21AD2B22BB903B030BDED
:106DC000013BE15CA954E2E7013BE118097AA954CF
:106DD000F1E730B40D460446114620B11A46284664
:106DE000234630BC184730BC70471020704770B540
:106DF000044600200D46FEF7A5FD0328024606D0F6
:106E000029462046BDE870400123FFF7E2BF70BD70
:106E1000704770477A7020009D242000F9242000DC
:106E2000000000000100000001000000010000005F
:106E300000C0004000410D400000000008000000BC
:106E40002C00000000000001FFFFFFFF0500000014
:106E500002000000020000000200000000D000401C
:106E600008410D4002000000080000002C00000056
:106E700002010200FFFFFFFF060000001571200065
:106E800019712000287120002C712000B9342000D5
:106E9000293120008D312000CF642000593220009C
:106EA000ED302000F12E2000092F2000192F2000A6
:106EB000B12E20008D2F2000C53320000D3620007C
:106EC0002932200007000000FF000000050000003C
:106ED000ED00000003000000D500000001000000EC
:106EE000C500000000000000B6000000FFFFFFFF2B
:106EF000B0000000FDFFFFFFA1000000FBFFFFFF4F
:106F000091000000F9FFFFFF88000000F7FFFFFF7E
:106F100072000000F5FFFFFF62000000F3FFFFFFBB
:106F200058000000F1FFFFFF42000000E8FFFFFFF4
:106F300000000000537120003B65200033652000F5
:106F40003765200067712000776520006F6520009D
:106F5000736520007767200075672000B567200003
:106F6000AB6720005F682000C7692000DF67200052
:106F7000FF7120004F6A2000714B2000314C20002F
:106F8000AB6A2000BB6B2000B56B2000176B2000A4
:106F90000C7220007155200029542000A9532000B4
:106FA000B5532000C1532000CD53200011722000A2
:106FB0001D572000EF6D20003D5B2000A1582000F0
:106FC00029582000F1572000EB6D2000ED5D2000D6
:106FD000355E2000FD5D20001C722000116E200037
:106FE000AD5E2000A15E2000E44000200000000013
:106FF000055F2000136E20000000436F6E74696B04
:10700000692D332E782D323936372D673339626149
:107010006234663135005A6F6C6572746961205252
:10702000452D4D6F7465207265766973696F6E20AA
:107030004220706C6174666F726D0052696D6520DC
:10704000636F6E666967757265642077697468201E
:10705000616464726573732000253032783A0025CC
:107060003032780A00204E65743A2000204D4143AA
:107070003A2000205244433A2000427574746F6EE7
:10708000004343323533383A2049443A203078259A
:1070900030346C782C207265762E3A205047256467
:1070A0002E25642C20466C6173683A20256C75206F
:1070B0004B69422C205352414D3A20256C75204B90
:1070C00069422C204145532F5348413A2025752CC5
:1070D000204543432F5253413A2025750A53797373
:1070E00074656D20636C6F636B3A20256C75204866
:1070F0007A0A492F4F20636C6F636B3A20256C75B9
:1071000020487A0A52657365742063617573653A25
:107110002025730A00504F520045787465726E61E5
:107120006C2072657365740057445400434C4420CE
:107130006F7220736F667477617265207265736514
:1071400074006363323533382052462064726976A6
:107150006572004F6E2D436869702054656D7065CF
:1071600072617475726500564444330020202020FB
:1071700020202020202020202020202030303030CF
:1071800030303030303030303030303030313233F9
:107190003435363738394142434445460030313280
:1071A0003334353637383961626364656600307868
:1071B000003058002D002B00286E756C6C290025BE
:1071C000004576656E742074696D6572004374695C
:1071D0006D65722070726F636573730053657269B9
:1071E000616C206472697665720053656E736F72AC
:1071F00073001A1000000080C0E0F0F8FCFEFF529F
:10720000696D650000001B101A10000043534D41CA
:1072100000436F6E74696B694D4143006E756C6C11
:107220007365630025692C25732C25690A00414389
:107230004B00626173652073746174696F6E2070B6
:07724000726F6365737300B8
:10724800446F2000146E2000346F200000000000FE
:1072580000000000427120007D3520000000000081
:10726800A16520000000000000000000C17120009E
:10727800F54120000000000000000000CD71200052
:10728800254320000000000000000000DC71200001
:10729800F54620000000000000000000EA71200010
:1072A800F94720000000000004000800034E0020F9
:1072B8001C440020BE0008000B4E0020FC460020A5
:1072C8000C000800174E00207C4500203400020006
:1072D8001F4E0020E04500200C000800214E002031
:1072E800484600200000000032722000CD5E2000D9
:0872F80000000000CDAB1A01FB
:0873000078ECFF7F01000000A2
:020000040027D3
:10FFD400FFFFFFF30000000000202000FFFFFFFFF1
:10FFE400FFFFFFFFFFFFFFFFFFFFFFFFFFFFFFFF1D
:0CFFF400FFFFFFFFFFFFFFFFFFFFFFFF0D
:040000050027FFD4FD
:00000001FF
