:020000040020DA
:10200000A8560020ED242000976E2000956E200039
:10201000956E2000956E2000956E20000000000057
:10202000000000000000000000000000956E20008D
:10203000956E200000000000956E2000F96E2000D3
:102040001B6F2000216F2000276F20002D6F2000C4
:1020500000000000FF6E2000056F2000956E20003C
:10206000956E20000000000000000000000000004D
:102070000000000000000000956E2000000000003D
:102080000000000000000000956E2000956E20000A
:10209000956E2000956E2000956E2000956E2000B4
:1020A000956E2000956E2000956E2000956E2000A4
:1020B000956E2000956E2000956E2000956E200094
:1020C000956E2000956E2000956E2000956E200084
:1020D000956E2000000000000000000000000000DD
:1020E00000000000000000000000000000000000F0
:1020F0000000000000000000BD3A2000CD3A2000A2
:1021000000000000000000000000000000000000CF
:1021100000000000000000000000000000000000BF
:1021200000000000000000000000000000000000AF
:10213000000000000000000000000000000000009F
:10214000000000000000000000000000000000008F
:10215000000000000000000000000000000000007F
:10216000000000000000000000000000000000006F
:10217000000000000000000000000000000000005F
:10218000000000000000000000000000000000004F
:10219000000000000000000000000000000000003F
:1021A000000000000000000000000000000000002F
:1021B000000000000000000000000000000000001F
:1021C000000000000000000000000000000000000F
:1021D00000000000000000000000000000000000FF
:1021E00000000000000000000000000000000000EF
:1021F00000000000000000000000000000000000DF
:1022000000000000000000000000000000000000CE
:1022100000000000000000000000000000000000BE
:1022200000000000000000000000000000000000AE
:10223000000000000000000000000000000000009E
:10224000000000000000000000000000000000008E
:10225000000000000000000000000000000000007E
:10226000000000000000000000000000000000006E
:10227000956E2000A5392000C9392000613020006A
:102280002D3C2000192B2000956E2000000000003E
:102290002DE9F04F83299FB006460D4602D18248B2
:1022A00005F03AF934883CB1522C01D1882D31D057
:1022B0000023032033802AE004F0C1FE04F0C2FEB4
:1022C000204604F0BDFE794B1860012004F0B8FEF2
:1022D000774B1860062004F0B3FE764B1860072099
:1022E00004F0AEFE744B754A186089216E4802F006
:1022F00015FE4FF42071724804F0A5FE072000F08F
:10230000EBF9042000F0E0F95223012033801FB0E4
:10231000BDE8F08F6B4B01205B6898476A4CDFF893
:10232000C0B1206004F08EFE002004F089FECBF8DE
:102330000000012004F084FEDFF8A891DFF8A881F6
:10234000C9F80000062004F07BFEC8F80000072052
:1023500004F076FE27680790384604F04DF80446EE
:102360000D46524BDBF800001B68C01A04F044F81D
:1023700049A3D3E9002304F0B9F822462B4604F020
:10238000B5F80022514B04F0DBF9494BCDE90401CB
:102390001B68D9F80000C01A04F02EF840A3D3E956
:1023A000002304F0A3F822462B4604F09FF80022F5
:1023B000464B04F0C5F93F4B82461B68D8F8000035
:1023C0008B46C01A04F018F80022414B04F08EF836
:1023D00022462B4604F08AF800223C4B04F0B0F968
:1023E000354B80461868079B8946181A04F004F894
:1023F0000022384B04F07AF822462B4604F076F897
:102400000022324B04F09CF904460D46DDE904013C
:1024100004F07EFA524607905B46DDE9040103F0C2
:10242000AFFE42464B4603F0ABFE22462B4603F07E
:10243000A7FE04F06DFA29460390204604F068FADE
:1024400049460290404604F063FA594601905046CE
:1024500004F05EFA079B3A461F4900900AA801F073
:1024600041FC0AA804F0E8FC81B20AA802F0AAFE26
:102470004FF4B8531EAC24F8543D1849204605F0DB
:1024800082F800287FF414AF2146074805F046F88B
:10249000072000F021F90BE7333333333333E33FC5
:1024A00094F6065F984C553F10470020FC460020EC
:1024B000004700200847002004470020807A2000C1
:1024C000E8460020D4792000E046002000000441C6
:1024D0000000384000003440B47C20009E4E0020B4
:1024E000E4460020F84600200C470020FF22482444
:1024F00008B5084B08481A60084AE369121A0849E7
:1025000098470848084AA369121A0021984700F022
:102510000DF8FEE7B4200D4040400020F8400020B8
:10252000E87C2000F8400020A74E002073B500F0A2
:1025300037FC00F031FD00F08DFC00F059FA01F09D
:1025400063FB04F08FFD00F01FFD00F0B3F80120E5
:1025500004F0A4FC02F036F900F00EFC002000F0BC
:102560002FFB012000F02CFB4049002000F0EEFB87
:1025700002F070FA04F0C9FC042004F08FFC3C481F
:1025800004F0F8FC3B4804F0F5FC00F0CDF9002025
:1025900002F00CFB01F02CFA0021374802F0A0F900
:1025A00002F03EF804F0A6FC00F07CFD00F098FD7F
:1025B00002F070FE0821684601F04AFB9DF80630E3
:1025C0009DF807502D4C45EA0325BDF806302C48F0
:1025D000238001F077FB2B4E21782B4801F072FB12
:1025E00061782A4801F06EFBF46A4AF6CD31022088
:1025F000A04729460320A0471A210120A04708220E
:102600006946736B0B209847214801F05BFB214B17
:10261000186804F0AFFC204801F054FB1F4B186809
:1026200004F0A8FC1E4801F04DFB1E4B186804F096
:10263000A1FC00211C4802F053F91C4B01219B68AE
:102640008120984704F0FBFC194804F0EEFC00F0F0
:1026500099FB022004F022FC00F09AFB02F0CAF879
:1026600010F0FF0FF8D101F065FAF5E70D4A2000F0
:102670008A7A2000A67A2000684000209E4E002022
:10268000CB7A20001C792000E97A2000EF7A200024
:10269000F57A2000F0792000FC7A2000207A2000D2
:1026A000037B20003C7A200098400020A478200082
:1026B000787A200008B500F0DDF80022014B1A708E
:1026C00008BD00BF244D0020024A13781843107043
:1026D00000F0F4B8244D0020034A137823EA0000E8
:1026E000107000F0EBB800BF244D002018B1012895
:1026F00004D000207047034B18687047024B1878CD
:10270000704700BF20900D40254D002010B5094AAC
:102710000020137801331370074B197802F0B8F8D2
:10272000BDE8104005490023054A0968054801F045
:10273000ADBF00BF254D0020A04E0020304100203D
:102740000D27200010410020812810B50C462BD009
:10275000B0F5807F3AD0802824D102F02BF81D4BB1
:102760001D4A18701368032123F00803136052F800
:10277000203C002023F0080342F8203C52F81C3C87
:1027800023F0080342F81C3C52F8183C43F00803BD
:1027900042F8183C042200F00DFC032200210F48EF
:1027A00000F0AAFB012408E00D4B1A6839B142F091
:1027B00008021A60002000F011FB204610BD22F034
:1027C00008021A60084600F017FBF6E7054B19608F
:1027D000E8E700BFA04E002020940D40E92720002C
:1027E00010940D403041002008B50F4804F043FC20
:1027F000C8B108210C4804F037FC0C4B196849B1EA
:1028000000220B4B1A700B4B1B6843B90A4A0B484A
:1028100001F03CFFBDE80840094802F097B90748BD
:1028200001F03EFFF6E708BD0841002030410020DE
:10283000254D002020900D400D2720001041002044
:10284000A4782000084A136823F00403136052F8A8
:10285000203C43F0040342F8203C0022034B1A6062
:102860000122034B1A70704720C40D4010C00D4068
:10287000264D00200D4A0E49136823F0C003136053
:1028800052F8203C43F0C00342F8203C0022094BA0
:102890001A600B6823F010030B6051F8203C43F0E2
:1028A000100341F8203C044B1A60704720A40D40EF
:1028B00020C40D4000A30D4040C00D4010F00202A6
:1028C00018BFFF22084B1A6010F0040218BFFF2245
:1028D000064B10F001001A6018BFFF22044B14BF12
:1028E0001A601860704700BF00A20D4000A10D40A3
:1028F00040C00D40044B1868C0F30720030904BF13
:102900001030C0B2704700BF1C300D40054B186836
:10291000C0F3C21001289ABFC0F1020040034FF477
:102920000040704714300D402DE9F047482588B02D
:10293000FFF7E0FF164B07461C68AB6898476B68CB
:10294000804698470546FFF7E1FF064600F0BCFACF
:10295000814600F0C5FA824600F072FAB60A04F029
:102960000103AD0AC4F34004CDE905A00393CDF8FB
:10297000109002940196009507F00F03C7F3071219
:102980004146044801F09EF908B0BDE8F08700BF59
:102990001C300D40117B20002DE9F04800F07EF83E
:1029A000114B4FF0000BD3E900673A46B04238BFF5
:1029B0007A1C15464BEA0004C3E900450B49D1E9EE
:1029C00000BCBBEB06026CEB0703161943EB0507D3
:1029D000C1E9006701F0C4FD18B1BDE8F04801F09D
:1029E00043BDBDE8F08800BF00410020F840002052
:1029F0000F4B104A1A6053F8042C42F0050243F8BA
:102A0000042C53F8042C42F0020243F8042C0A4A26
:102A1000136843F0010313600022084B1A6004227C
:102A200043F80C2C012243F8082C0F22DA6270477D
:102A300014E000E047E8010008200D400C000340CE
:102A4000034BD3E90023100A40EA0360704700BF3C
:102A500000410020054B18601C3B1A6842F001023F
:102A60001A601A68D207FCD4704700BF28000340E0
:102A700010B5064C236823F001032360FFF78CFF99
:102A8000236843F00103236010BD00BF10E000E0A5
:102A9000014B1868704700BF34410020064B18688E
:102AA0005A6808331B681B0443EA0223034A0343A2
:102AB000106843EA0060704740500D404C500D4094
:102AC00010B50446114A1368DB07FCD504F021FA5F
:102AD000FFF7E4FF231A062BD8BFC41D0C4B220EB0
:102AE0001A60C4F3074243F8042CC4F3072243F8E6
:102AF000082CE2B243F80C2C04F007FA054B9120A5
:102B00001C60BDE8104000F069B900BF50500D4096
:102B10004C500D403441002008B500F0F3FF002276
:102B2000054B91201A6000F075F9912000F064F9CE
:102B3000BDE8084001F00ABF34410020064B1B6885
:102B40001B075FBF054B186880F00800C0F3C0008A
:102B500048BF0020704700BF18C0004018D0004098
:102B60002C23154A70B503FB00234FF6BF72DC68B7
:102B70000546236C626413F050020DD00F4EA3691A
:102B8000DB0600D570BD56F825301BB12068C0B2F9
:102B90009847F4E72368F2E713F4D06FF2D04FF4CC
:102BA00040732363FF236360E36AE262E362236BA3
:102BB00043F001032363E5E7B478200038410020A7
:102BC00001282DE9F74F064600F2B0802C25454339
:102BD000584F7C1994F92080B8F1000FC0F2A680FC
:102BE00094F92290B9F1000FC0F2A080524800F091
:102BF000FBFF524A79591368E5680B431360536829
:102C0000616894F921A00B4353609368A1685FFA4F
:102C100089FB0B4393600023C5F8C83F23690AEB87
:102C2000C8021A6094F92330227D00939DF8003089
:102C300058461946019300F0C7F9019B082219462E
:102C4000584600F0B7F901233D494FEA0939009A87
:102C500059F8010003FA02F2024349F801204FEA51
:102C6000083858F8010003FA0AF2024348F8012034
:102C70005022AA63AA6B94F9240042F4D062AA639A
:102C800002226A634FF440722A63A26900286A62D2
:102C9000E269AA624FF07002EA620D4614DB94F911
:102CA0002510284A41EAC0041460020354598B409D
:102CB00023435351C9B20022C0B200F07BF9224A2B
:102CC000136843F4004313602C2303FB067393F94A
:102CD0002640002C1BDB93F927A05FFA84F85FFAEB
:102CE0008AF901224946404600F06EF90123240387
:102CF000625903FA0AF313436351082249464046D6
:102D000000F058F9104A136843F4804313602C23F1
:102D100003FB0676F26896F82800136B43F0010374
:102D2000136303B0BDE8F04F00F058B803B0BDE83E
:102D3000F08F00BFB47820003D2B200028200D40EC
:102D400020940D4004410D4030D0004001289CBF2C
:102D5000014B43F82010704738410020012808D863
:102D60002C22044B02FB0030C3689A699206FCD403
:102D700019607047B47820000022014B1A60704738
:102D800000500D400822014B1A60704700500D4062
:102D9000A022024B1A6050221A60704700500D406A
:102DA000074B084A1A60084B80321A60074B803282
:102DB0001A60074B80321A60064A074B1A60704748
:102DC0004441002000E100E0404100204841002053
:102DD0004C4100200020200008ED00E0054B410997
:102DE0001A68012300F01F0003FA00F042F82100E6
:102DF000704700BF44410020054B41091A68012378
:102E000000F01F0003FA00F042F82100704700BFF5
:102E100040410020054B41091A68012300F01F00C2
:102E200003FA00F042F82100704700BF4C41002037
:102E3000024B1868C0F38150704700BF04200D405A
:102E400008B5FFF7F5FF024B53F8200008BD00BF9F
:102E50000C79200038B5164D164C2B68012223F052
:102E600040032B602368062123F0400323600320E6
:102E700000F0A0F82B68012223F080032B60236868
:102E8000072123F080032360032000F093F80A4B0E
:102E90000A4A0B491A600B4A134610680842FCD1D3
:102EA0001A685101FCD41A685201FCD538BD00BF24
:102EB00020C40D4000C40D4000200D40010102005F
:102EC0000000010104200D40034B04481B6803F07F
:102ED00007031841704700BF04200D400048E80177
:102EE000034B04481B68C3F302231841704700BF1B
:102EF00004200D400048E801024B02EBC10243F8F8
:102F00002200704750410020F8B507460E460024C5
:102F1000084D05EB411547FA04F3DB07E1B204D590
:102F200055F824300BB1304698470134082CF2D1C3
:102F3000F8BD00BF504100202DE9F04780464FEA20
:102F40000837DFF8409007F1804505F5592500F076
:102F5000D9FDD5F8186457F809404FEAC80A24FA91
:102F60000AF446EA0400E4B24146C0B2F6B204FAFA
:102F70000AF4FFF7C9FFC5F81C6447F80940BDE82B
:102F8000F08700BF18970D4080220021014803F010
:102F900009BF00BF50410020034B044A1A60044B94
:102FA000803A1A60704700BFD041002080400D4039
:102FB000D4410020034B01EBC0011B6843F82120E2
:102FC000704700BFD0410020034B01EBC0011B68DC
:102FD00043F82120704700BFD44100200E2870B56F
:102FE0000BD1154B154E1C6844F002051D60356869
:102FF00025F03F0343F001033360114E336823F0A3
:10300000FF031A43114301430E4A316013681B0644
:10301000FCD50D4B0D4A1B6812680E2803F0FC030B
:1030200043EA022308BF054A1BB204BF1560024AE7
:10303000184608BF146070BD34000144F48608408F
:1030400008700D4000700D400C700D4010700D4068
:10305000024B1868B0FA80F04009704700B708408A
:1030600010B58F20064CFFF7D5FE8F20FFF7C4FE6A
:10307000206818B101F04CFC0023236010BD00BF94
:10308000D8410020064A136843F0020313605368D6
:1030900043F002035360936843F002039360704768
:1030A00048200D4007B50C4800F09EFDFFF7EAFFF1
:1030B0000A4B1A6842F002021A6000220192019A39
:1030C0000F2A06DD1A6822F002021A6003B05DF8CA
:1030D00004FB019A0132F1E75130200054200D40E9
:1030E000064A136823F002031360536823F00203B7
:1030F0005360936823F002039360704748200D40AB
:103100000B4B1A689207FCD41B685B065FBFED226D
:10311000084B1A601A60084B1B6813B1EF22054B6D
:103120001A60064A0120137803F07F03137070477A
:103130004C860840388808402C860840294D0020DD
:10314000044B186800F02200A0F1200358425841B7
:10315000704700BF4C860840024B186800F04000E2
:10316000704700BF4C860840084B93F90020002AA6
:1031700009DBED21064A11601160E32111601A7824
:1031800062F07F021A700120704700BF294D0020B5
:1031900038880840A0F10B01CBB20F2B10B50446C4
:1031A00013D80B4B1B6813F03F0302D0FFF7A8FFA7
:1031B000012301EB8101074A0B3111600BB1FFF7CD
:1031C000D3FF054B60B21C7010BD4FF0FF30FBE722
:1031D000488608403C860840F640002010B50C4662
:1031E000002900F08680102800F28580DFE800F0DA
:1031F00009101B22243B44575C727683837B7D54E9
:103200007F003E4B1B68003318BF0123236024E07E
:1032100005223B4B1B6803F07F030B3B93FBF2F350
:103220000B33DBB2F2E7374B1A68043B1B6843EA07
:103230000223EBE7344BF7E700230B60334B344AB0
:103240001B6803F001030B601268900644BF43F053
:1032500002030B602F4B1B780BB900200BE00B68AF
:1032600043F00403D2E700202B4B08601B78002BAF
:10327000F3D001230B6010BD284B29491A680023A5
:10328000D2B201EBC3000079904202D851F833303A
:10329000BCE701330E2BF4D16FF01703B6E7214BD7
:1032A0001B685BB2493BB1E71F4B1B6899060FD106
:1032B000FFF75AFF01231D490A68D207FCD51C4AB3
:1032C0001168493949B20BB1FFF71AFF2160C4E711
:1032D0000023F0E7174B93F9003097E7164B1B7864
:1032E00003F07F0392E70B2390E71A238EE707236F
:1032F0008CE70220BFE70120BDE700BF2C86084015
:103300003C860840CC850840D485084000860840AB
:1033100024860840284D0020F740002040860840C1
:103320005479200058860840488608406486084042
:10333000608608402A4D0020274D002008B50B4B21
:103340001B6899060FD1FFF70FFF012308490A6890
:10335000D207FCD5074A1168C1F300110BB1FFF782
:10336000CFFE084608BD0023F0E700BF48860840AE
:10337000648608404C86084038B505460C46134A1A
:1033800013689B07FCD4124B93F90030002B01DB30
:10339000FFF7EAFEEE220F4B691E1A601A60A21CAC
:1033A00043F8102C2144022000F03AFB0A49013C6A
:1033B00041EA0411022000F045FB022000F04CFB22
:1033C000022000F061FB002038BD00BF4C860840A1
:1033D000294D00203888084002C001C0F8B5224BB2
:1033E00093F90030002B18DBFFF758FB0446FFF77A
:1033F000BBFEC4F1FF2404F57F04F634FFF74EFB57
:10340000C442FBD40126194B1B7843B9184C2368DE
:10341000990609D502210846F8BD0026F3E7FFF713
:103420008DFF0028F2D1F5E7E9230427114D2B6029
:1034300023689A0703D4013F17F0FF070BD12368D5
:103440009B070CD4EE2301212B602B60002EE2D0D1
:10345000FFF756FEDFE70620FFF7FCFAE8E72168F2
:1034600011F00201FBD1F1E7294D0020F7400020C7
:103470004C860840388808400B280DD1082A0DD109
:1034800061B1074B074A083111F8010D43F8040BED
:103490009342F9D100207047012070470220704705
:1034A000A8850840C885084070B5304E336813F0D1
:1034B000400358D02E4D2C68230605D5ED22002060
:1034C0002C4B1A601A6070BDE4B2042CF6D9023C91
:1034D0008C42F3DCE4B2032C1ED12B6803702B6802
:1034E00043702B6883702968234B493949B219709E
:1034F0002B68224D18062B70E0D589B2042001F00C
:103500009FFE2978032001F07F0101F099FE1C4BFA
:103510001B78CBB12046D6E701190139032000F012
:1035200087FA184B611E43EA0111032000F08AFA62
:10353000032000F091FA032000F0A6FA032000F027
:10354000AFFA0028FAD1CEE733685A06E2D53368DD
:103550001B0603D50C4801F0DBF9DBE7ED22054B38
:103560001A601A60D6E71846ADE700BF4C860840DF
:1035700028880840388808402A4D0020274D002020
:10358000284D002002C0010C504000201D4B187037
:1035900000282FD01C4A13681B03FCD51B4B1A684C
:1035A00042F002021A601A6842F001021A601A68B8
:1035B0005007FCD51A6822F001021A601A685107F8
:1035C000FCD41A6842F002021A601A6842F0010242
:1035D0001A601A685207FCD50D4A8D20136823F033
:1035E0000403136002F5D472136823F0040313601C
:1035F000FFF702BC064A8D20136843F004031360F2
:10360000FFF7ECBB284D002004200D400488084043
:103610008C86084010B5072861D8DFE800F0040F59
:103620001A212541475B012903D1FFF79DFD0020A9
:103630003BE0002955D1FFF763FDF8E7A1F10B034B
:103640000F2B4ED8C8B2FFF7A5FD0130EFD10320F4
:103650002BE089B2244BCAB2090A1A605960E6E726
:1036600089B2CAB2214BF7E731F0070339D1204BB9
:1036700011F0010F1A68C1F3800014BF42F001027B
:1036800022F001021A601B4B11F0020F1A6814BFDE
:1036900042F0200222F020021A60FFF777FFC6E70F
:1036A00031F001001DD1144B197010BD01F1180348
:1036B0001F2B16D80D23114A52F83340D800A142CF
:1036C00004DC024412790E4B1A60B0E713F1FF33A9
:1036D000F2D2ACE7C9B20B4B49311960A7E7012020
:1036E000E3E70220E1E700BFC8850840D085084035
:1036F0000086084024860840F740002054792000C6
:103700004086084058860840F8B5294F3D7815F0A6
:1037100001054AD10124F822264B7F261C605C60FB
:103720009C60A3F59323A3F514731A600922C3F8D0
:103730009021152270331A600B2203F59B2303F5A9
:103740009E731A604022A3F59B23A3F5F0731A60C1
:103750001A6842F020021A60D52243F81C5CDE622F
:10376000DA61154B1878FFF715FD144B8E201E609B
:10377000FFF734FB022000F07BF91149022000F032
:1037800057F9032000F074F90D49032000F048F9BF
:103790000C4B1878FFF7FAFE0B48294601F0A0F809
:1037A00020463B7823433B70F8BD0020FCE700BF78
:1037B000294D0020A8200D40F640002094860840A6
:1037C00028880840284D00205040002038B5038844
:1037D000044653B340F20342934233D11B4B187853
:1037E0001A4638BB822923D1137873B901F0DAFC69
:1037F00001F068FC8021FFF757FE002805DD80B24C
:1038000001F020FC124B1B699847124B1A785206A4
:103810000BD500221A70104B1D68FFF771FCFFF7E3
:1038200073FFAB0601D0FFF79FFC40F203432380F8
:1038300001200AE01B78002BFAD0064B1B785806B3
:10384000F6D5CFE700230380032038BD284D0020A4
:103850003C7A2000294D0020488608400B282DE99D
:10386000F74F8A4613D1082A40F08680002900F0DD
:103870008380424B424A01F1FF3A53F804199342C4
:103880000AF8011FF9D1002003B0BDE8F08F0C2821
:1038900070D1042A70D100296ED03A4A3A4913688F
:1038A000DFF8F09023F0070313600B68DFF8E8807F
:1038B00043F008030B60D9F80030D8F800401068D6
:1038C000DFF8D8E0DFF8D8C020F070001060DEF834
:1038D0000000DCF80050DBB2240243EA0563A4B226
:1038E0000004234300F47F00034328480668F4B231
:1038F000019400240094DDE9006746EA030613689A
:1039000023F0070343F0010313600B6843F008033F
:103910000B60D9F80030D8F800101568DBB225F03C
:10392000700545F010051560DEF80020DCF8005049
:10393000090243EA056389B212040B4302F47F02D1
:10394000134302680098D1B2894640EA0308FFF7A2
:10395000A5F8B6EB080667EB0907F90305460C4A1C
:103960000023F00341EA564102F0F2FF281ACAF898
:10397000000088E7012087E7022085E7C48508402A
:10398000A485084010880840048808401C88084026
:103990000048E80114880840188808402488084036
:1039A0002088084008B5054B1B7813B9044800F07F
:1039B000AFFF0022034B1A6008BD00BF284D002056
:1039C0005040002034880840064B07481A68042AF3
:1039D0001FBF06490A7842F040020A7000221A60AE
:1039E00000F096BF2C88084050400020294D002050
:1039F00008B5094B40221846002103F0D3F90121F4
:103A0000064A116050602E20FFF7E8F9BDE8084033
:103A10002F20FFF7E3B900BF0040002004F00F4063
:103A200003289EBF014B0001195070470040002041
:103A300003289EBF024B03EB00104160704700BF9C
:103A40000040002003289EBF024B03EB0010816062
:103A5000704700BF00400020032806D80123034A16
:103A600003FA00F0116808431060704728F00F4017
:103A7000032806D80123034A03FA00F0116808431B
:103A80001060704720F00F40032806D80123034A36
:103A900003FA00F0116808431060704714F00F40FB
:103AA00003289FBF044B03EB0010806800F0070061
:103AB00088BF0020704700BF004000204FF0FF3259
:103AC000014B1A60704700BF04F50F400122014B03
:103AD0001A6070474CF00F40084B19461A68D00224
:103AE000FCD4074B1A6822F480321A600A68D203A9
:103AF000FCD41A6842F400321A60704704200D406A
:103B000000200D4010B5094C226890070DD0084BDD
:103B10001A4619684901FCD413685B01FCD5FEF70D
:103B2000A7FFFFF7D9FF0023236010BD58200D40E9
:103B300004200D4038B5264B1C6814F03F0414D106
:103B4000244D55F8243023B1984770B10134052C29
:103B5000F7D1214D2B7843B1FEF79AFF0446FEF7CB
:103B60009DFF201A092800D90CB930BF27E01B4B54
:103B70001A6822F400321A60194A11461068C0020D
:103B8000FCD41A6842F480321A600B68DB03FCD55F
:103B9000FEF784FF201A092803D8BDE83840FFF754
:103BA0009BBF63280F4C0BD92B78022B08D12360C5
:103BB00000F064FE30B1FFF78FFF0023236038BDB3
:103BC0000123F4E7FEF764FF0028CED1F3E700BF3E
:103BD00048860840DC4100202B4D002000200D408D
:103BE00004200D4058200D400023064A52F82310AF
:103BF000814206D011B942F8230070470133052BEA
:103C0000F4D17047DC4100200022054B1A60054AC0
:103C1000136843F0040313600222034B1A707047C9
:103C200058200D4010ED00E02B4D002010B59020E5
:103C3000064CFFF7EFF89020FFF7DEF8206818B188
:103C400000F066FE0023236010BD00BFF04100209D
:103C500070B5184B1B7843BB174A1278122A25D12E
:103C6000164A12784B2A21D14A0802F52013144D26
:103C70002733441EAB4207D1002301F52011273121
:103C80001044934205DB70BD13F8016904F8016F1D
:103C9000F0E7CC1A2478C4540133F2E7D41A24781C
:103CA000C45401338B42F9DBEDE7002301F5201208
:103CB0002732F7E72B0028002A00280029002800D7
:103CC000270028000FB407B504AA52F8041B0448C3
:103CD000019200F039F803B05DF804EB04B07047CE
:103CE000604000200EB43FB5094B07AA52F8041BF0
:103CF0000190049304A801AB0392059300F024F80B
:103D00000022019B1A7006B05DF804EB03B0704707
:103D10001570200070B505460C460A4E102C07D8C9
:103D200074B12B68224668680649BDE870401847A0
:103D30002B68102231466868984710B9103CEDE7AF
:103D4000204670BDFC7B20002DE9F04F074614464D
:103D500000258FB00791079B1B78B3B1DDF81C805D
:103D600000E0B046464616F8013B0BB1252BF8D1D2
:103D7000079B98450ED0A8EB03094A463B68079974
:103D80007868984728B14FF0FF3528460FB0BDE856
:103D9000F08F4D4498F80030002BF6D098F80130A1
:103DA000002BF2D04FF0000A314611F8012B3346B8
:103DB0002B2A16D00AD8202A16D0232A17D0A2F1EF
:103DC000310008283FD84FF0000918E02D2A04D010
:103DD000302AF4D14AF0100A01E04AF0010A0E46F6
:103DE000E2E74AF0060AFAE74AF0020AF7E74AF081
:103DF000080AF4E70A2303FB0929A9F1300933462D
:103E000016F8012BA2F130010929F3D91A782E2ACC
:103E100035D159785A1CA1F13000092828D800263C
:103E200011781346A1F13000092802F101021AD9D4
:103E30001A786C2A40F092805A786C2A22D14AF083
:103E4000800A023321E02A2A0AD1D4F800900B46D6
:103E5000B9F1000F04F10404B8BF4AF0010AD5E734
:103E60004FF00009D2E70A2303FB0616303ED7E7DE
:103E70002A2903D1266802330434D9E713464FF0C8
:103E8000FF36D5E701334AF0600A1A78642A00F059
:103E9000928000F28580462A00F0AF8071D8252AF2
:103EA00000F0C08066D8002A3FF46FAF013307935B
:103EB0000AF4E063B3F5806F00F0568200F2B5803B
:103EC000B3F5807F00F0EA80B3F5407F7FF443AF25
:103ED000AF4B1AF4804FAF4A18BF1A460DF13303A7
:103EE00000211E462068043450EA010C40F0748220
:103EF000F61A04BF302203F8012C4FF0780208BFF5
:103F000003F1FF3303F8012C4FF0300208BF012604
:103F100003F8022C23220336B1458CBFA9EB060916
:103F20004FF000091AF0010AA3F1030803F8032C6B
:103F300006D149463846FFF7EDFE00287FF423AF4F
:103F40003B68324641467868984700287FF41BAFAB
:103F50003544BAF1000F00F03682ACE1682A94D102
:103F60005A78682A02D14AF0200A6AE701334AF0F7
:103F7000400A8AE7412A4CD0452A97D14AF4424A5E
:103F800094E7582A33D004D8472A8FD14AF4A13A6B
:103F90008CE7612A3AD0632A88D14AF4A06A85E77F
:103FA0006E2A3CD00AD8662A24D029D3672A2AD080
:103FB000692A7FF47BAF4AF4245A77E7732A2BD01F
:103FC00007D86F2A10D0702A7FF470AF4AF4407A75
:103FD0006CE7752A05D0782A7FF468AF4AF4C85A8E
:103FE00064E74AF4106A61E74AF4885A5EE74AF4E3
:103FF000B24A5BE74AF4007A58E74AF4844A55E744
:104000004AF4024A52E74AF4813A4FE74AF4C13A85
:104010004CE74AF4E13A49E74AF4806A46E74AF451
:10402000E06A43E74AF4C06A40E7B3F5C06F2BD0BB
:10403000B3F5E06F00F0DF81B3F5A06F7FF48BAED6
:10404000B9F1010F38BF4FF0010923681AF00106DA
:1040500004F104048DF8203009F1FF3807D14146FE
:104060003846FFF757FE00287FF48DAE45443B6885
:10407000012208A97868984700287FF484AE002EB2
:1040800000F0A181414617E13B680122424978686E
:10409000984700287FF477AE01355CE6002EACBF70
:1040A0002AF0100A01261AF400520AF0E0030692E0
:1040B00043D0402B3AD009D8002B3AD0202B11D036
:1040C00000220023CDE90023002319E0602B30D02B
:1040D000802BF5D1073424F0070303F10804D3E95A
:1040E000002303E094F90020D3170434002A73F16D
:1040F0000001E7DA524263EB4303CDE900230123D9
:1041000005930AF4C053B3F5805F00F0EB80B3F57C
:10411000C05F00F0EC80B3F5006F40F00381DDE993
:1041200000230DF1360BCDE9022348E0B4F900205D
:10413000DAE722680434D317D8E7402B1FD009D818
:10414000FBB1202B14D00023002205930023CDE9DE
:104150000023D6E7602B14D0802BF4D1073424F051
:10416000070303F10804D3E90023CDE9002304E0A9
:1041700022780023CDE900230434069BC0E722887F
:10418000F7E72368002219460434CDE90012F4E76A
:104190001C7C20002D7C20004F7C2000DDE90201EA
:1041A0000A22002302F0D4FBDDE9020130320BF8D1
:1041B000012D00230A2202F0CBFBCDE90201DDE94B
:1041C00002231343EAD10DF13603A3EB0B03029351
:1041D000029B41F608029E4288BFF61A41F208038C
:1041E0000AEA020298BF00269A4202D1002E08BFB6
:1041F000012641F60801029B8A42334440F0968032
:10420000DDE900120A4300F091807D491AF4804FE5
:104210007C4A08BF0A464FF002080092069A82B113
:10422000059A002A40F087800AF00602022A00F070
:104230008780062A744A009904BF11464FF001088E
:104240000091434499458CBFA9EB03094FF0000945
:104250001AF00103059304D11AF0100F74D04E44E4
:104260009946D7E90030B8F1000F05D042460099D1
:10427000984700287FF487ADB246029B1D44BAF1EF
:10428000100FD7E9003066D8BAF1000F05D05246BA
:104290005E49984700287FF476AD3B68029A5946FC
:1042A00078684544984700287FF46DAD059B3544F8
:1042B000002B00F0888049463846FFF72BFD002888
:1042C00000F081805FE502F0070130310BF8011D3D
:1042D000D10841EA4371D8080A46034652EA03016D
:1042E000F1D170E7DDE900230DF1360BF6E7484B1D
:1042F0001AF4804F0DF1360B464918BF1946DDE917
:10430000002352EA03003FF45EAF02F00F00085CA6
:104310004FEA131C0BF8010D100940EA0370024626
:104320006346EEE70DF1360B002350E74FF000082F
:10433000CDF8008072E74FF00108374A009280E71D
:104340004FF00108354AF9E749463846FFF7E2FCE5
:10435000002886D017E510222C49984700287FF4C2
:1043600012ADAAF1100A8AE7D4F800B00434BBF108
:10437000000F2CD0D84698F8003008F1010223BB7A
:10438000A8EB0B08002E02DBB04528BFB046C145A4
:104390008CBFA9EB08094FF000091AF0010606D1FD
:1043A00049463846FFF7B6FC00287FF4ECAC3B6882
:1043B000424659467868984700287FF4E4AC454463
:1043C000002E7FF478AF4D44C5E49046D3E7DFF884
:1043D00050B04FF00608D5E700F00F0C12F80CC0F3
:1043E0004FEA111E03F801CD4FEA101C4CEA017C84
:1043F0006046714678E5236804341D60ABE400BF75
:104400003E7C2000417C2000467C20000C7C20006B
:104410001C7C20002D7C2000447C2000017B20009F
:10442000487C200010B50E4C236813B90D4A136068
:1044300010BDFEF705FB2168D1E9002313448A680B
:104440001B1A1AB91844074B1860F1E7D2E9001497
:104450002144091A8B4228BF0B469268F1E700BF3E
:10446000F8410020F4410020014800F051BA00BF9B
:10447000684000202DE9F8430388054653B1592BC5
:1044800047D1872920D1002024490B6863B918B18E
:104490000B6001E0214A1360592301202B80BDE805
:1044A000F88301203346F1E7D3E902649442F8D05F
:1044B00000B10B6099680029EED0C86890420ABF2D
:1044C00089680B469960F5E78229E5D1134F4FF0D3
:1044D0000009B84600263C68002CDDD0204602F0DA
:1044E000CAFD98B122468821E06800F0D1F958B998
:1044F000E060A3682EB1B360C4F80890FFF792FFA4
:10450000E8E7C8F80030F7E7FFF7AEFF2646A468F3
:10451000E2E7002303800320C1E700BFF841002049
:1045200010B50446FFF7A0FFE3680B4A0BB1136810
:1045300033B90A4B1B68E36013681460A36004E09E
:10454000A34206D1054A1268DA60BDE81040FFF7C1
:1045500069BF9B68ECE700BFF84100208043002062
:10456000024B1868003018BF01207047F841002046
:1045700010B50B4A04461368834208D18368136060
:10458000FFF750FF0023C4E9023310BD1346002B90
:10459000F8D09A68A242F9D1A2689A60F0E700BF09
:1045A000F8410020F8B5038806461546CBB14A2BE2
:1045B0002BD188291FD1174802F06EFD0446C4B1E3
:1045C000231D9D421FD12146124802F06FFD124D5E
:1045D00062692F682A60A2690AB1E06990472F607A
:1045E00007E00C4802F058FD044634B901220B4B99
:1045F0001A704A23338001200AE0A168201D02F0CE
:1046000022FD2468F1E72468D9E700230380032012
:10461000F8BD00BFFC410020804300202C4D00204D
:1046200010B50024054B06481C7002F032FD2146EF
:10463000BDE81040034800F053B900BF2C4D0020E6
:10464000FC4100207840002070B50446E3610B4B2C
:10465000049D1B78C4E905526BB1094D094B2E68C6
:10466000201D2B6002F0EFFC2E602146BDE870405B
:10467000054802F02EBDA160F7E700BF2C4D0020D9
:104680008043002078400020FC41002013B5034CFB
:1046900024680094FFF7D8FF02B010BD80430020CB
:1046A00010B5084B04461B7843B10430FFF760FF98
:1046B0002146BDE81040044802F0F8BCC0E90333CD
:1046C000F6E700BF2C4D0020FC41002038B5836880
:1046D00004460D469BB10A4804600220A07304F111
:1046E0000C0098470238012801D9832D05D12146B5
:1046F0002046BDE8384000F005B80123A37338BD5B
:10470000804300202DE9F8431C4F89463D682C4624
:10471000844204D00CB9BDE8F8832468F8E7002C83
:10472000F9D0174EA37BD6F8008063B10023A373A2
:104730008DB9A3683BB14C4505D034602A4683212E
:1047400004F10C0098473B68A3420ED123683B60FC
:10475000C6F80080DFE7AC4204D022468721284615
:1047600002F07AFC2D68E3E71346002BF0D01A68BC
:10477000A242F9D122681A60EAE700BF8443002010
:1047800080430020002238B50125084B1A70084BE1
:104790001C6804B938BDE37B2BB1E581002282217E
:1047A0002046FFF793FF2468F3E700BF304D002059
:1047B00084430020024B1878421C1A70704700BFD7
:1047C0002E4D00208A22064B1A700023054A1370D2
:1047D000054A1370054A1360054A1360704700BF0D
:1047E0002E4D00202D4D00202F4D00208443002011
:1047F000804300202DE9F0411B4D2B780BB1FFF7D2
:10480000C1FF1A4C22789AB10C21194E194F3378F6
:10481000013A59430133781803F01F0317F8018058
:104820003370D0E90170227090B9134B1E6826B91D
:104830002B7820781844BDE8F0812B780BB1FFF776
:10484000A1FF30463A46414602F006FC3668EEE7E4
:10485000B8F1810F08BF01233A4608BF8373414670
:1048600002F0FAFBE4E700BF304D00202F4D00209E
:104870002D4D00200042002084430020024A034BBB
:1048800010781B78184470472F4D0020304D0020C1
:10489000F0B50B4E3378202B0FD00C25094C0A4F66
:1048A00024781C4404F01F046C433D19C5E9012021
:1048B0000020013339553370F0BD0120FCE700BF03
:1048C0002F4D00202D4D00200042002038B5034C14
:1048D000256802F0C1FB256038BD00BF8043002081
:1048E00030B40A4C0A4625682B4683420CD04BB99B
:1048F00050B101210560817320608381812130BC2A
:10490000FFF7E4BF1B68F0E730BC7047844300202A
:1049100038B1837B013B012B9FBF0123014AC37345
:1049200013707047304D0020024610B506485360A2
:104930000468029B11609360026014B90846FEF798
:10494000BFF8002010BD00BF8843002010B5084C00
:10495000206858B100232360D0E9013198472368CB
:1049600023B1BDE810401868FEF7AAB810BD00BF1B
:104970008843002070B505880446672D09D0792D3D
:104980002FD0002D33D1FFF715FF1B4B18701B4B99
:104990001D601B4E194D08E00A282B680ED07E2B97
:1049A00003DC5A1C2A60174AD054304602F012FC2D
:1049B000431CF1D16723238001201BE05A1C2A608D
:1049C0000025104A2846D5540B4B1978FFF760FF95
:1049D0000D4B2A4685211868FFF75AFF18B979232D
:1049E000E9E78529E8D10022044B1A60D1E70023CA
:1049F0000380032070BD00BFA54E00208C43002023
:104A000090430020314D0020804300200D2810B538
:104A1000014616D00C4C237853B90C4802F0C7FB62
:104A200008B9012323700A48FFF772FF012010BD67
:104A30000A28F8D1054802F0BAFB0028F3D0002379
:104A4000F0E70020F3E700BFB14D002090430020C5
:104A50008840002008B505490548802202F0A0FBE7
:104A6000BDE8084000210348FFF73ABFB24D0020DF
:104A700090430020884000202DE9F041048806463C
:104A8000772C20D07E2C3DD0002C4ED1FFF792FE0B
:104A9000284D294B294FDFF8B08018702C602B6807
:104AA00057F823202AB9264A137077233380012030
:104AB0003EE008F8034093680021802098472B6867
:104AC00001332B60EBE700231E4A1360194A136081
:104AD000184B1B4A1B6812789A4204DC194B1B685E
:104AE000002BF0D1E1E7184AD256002A19DA134A0E
:104AF000002052F82320104B1978FFF7C9FE28B97F
:104B00007E23D3E70C4B1B788B42D0D1094B0E4947
:104B10001A688B5C03F07F038B540A4A13680133D5
:104B20001360044A13680133D1E700230380032094
:104B3000BDE8F0819C430020A64E002040400020AC
:104B4000324E002098430020A14E002010B40A4BA2
:104B50000A491A780023934203DA51F82340A0420D
:104B600008D107490748CA5C62F07F02CA5410BCEA
:104B7000FFF7CEBE0133EEE7324E0020404000206A
:104B8000A14E002098400020064A136843F0040319
:104B90001360054B186804331B6840EA032080B299
:104BA000704700BF00700D4014700D4010B5174ADB
:104BB000136823F00C0313600122154B1A601A6866
:104BC000012AFCD10822134B13491A60E32203F592
:104BD00005731A601A460B68DB07FCD50F4C1021D1
:104BE00000232068013900F0010043EA00034FEA86
:104BF00043039BB2F5D1002BF1D00949180A03F009
:104C0000FE0308600B60EF23136010BD00700D40C1
:104C1000A8200D4024860840648608409C860840F1
:104C200014700D400378407840EA0320054B00FAE9
:104C300001F1985CC2F1080200EA21201041C0B2E3
:104C4000704700BF827C2000F8B506460A480D4632
:104C5000174602F021FA044630B93A462946304652
:104C6000BDE8F84002F06DBCA3680BB12846984738
:104C7000204602F04AFAEEE7A043002038B500F0E3
:104C8000F3F80546094802F007FA044628B95DB171
:104C90002846BDE8384002F04FBC636803B198472E
:104CA000204602F032FAF0E738BD00BFA0430020F2
:104CB00010B5044600F0E6F838B100F0DFF9034B18
:104CC000034821469B689847012010BD687A200060
:104CD000494C200070B50B4C0023616E0A4A04F168
:104CE0003800FFF7D3FCFFF74FFF616E0023B0FBE6
:104CF000F1F5064A05FB110104F11800BDE870400A
:104D0000FFF7C4BCA4430020114D2000294D200012
:104D1000044B5A6E196E5200914294BF59665A66FE
:104D2000FFF7D8BFA443002010B500F03BFA00F015
:104D3000C9F900230380044600F04EF8228893004E
:104D400008B1017B51B9981C80B200F07BF923882F
:104D500073B1BDE81040074800F0BCB88188234417
:104D60005980C18801329980228002F0CEF9E5E7AE
:104D700010BD00BFA44300209DF80030012B04D1DA
:104D8000024B9A6D5A66FFF7A5BF7047A4430020F7
:104D9000F8B50F4616461D46064C0146064A204603
:104DA00000F086F8C4E9167625660448BDE8F840A8
:104DB00000F00CB8A4430020FC792000794D2000BD
:104DC000014802F066B900BF10440020014B186092
:104DD000704700BF14440020014802F05DB900BFD5
:104DE000104400202DE9F04106460C480C461746B9
:104DF00002F052F908B9BDE8F0818388A34209D1D5
:104E00008568002DF7D03B4622463146AC46BDE8CA
:104E1000F041604702F079F9ECE700BF1044002050
:104E2000014802F036B900BF1844002081800146D5
:104E3000014802F04EB900BF184400200146014865
:104E400002F034B91844002010B50446054802F0B9
:104E500023F900B910BD8388A342FBD002F055F9B5
:104E6000F7E700BF18440020054B10B51B689847B2
:104E7000044618B18188012000F0E2F9204610BDF7
:104E8000E479200038B5064B05465B689847044630
:104E9000A988012000F0D4F9201C18BF012038BDDA
:104EA000E4792000014B9B68184700BFE47920009B
:104EB00070B505460C461646044A00F041F86E618E
:104EC0002046BDE87040024902F0FBBA047A200097
:104ED000907C200010B5044604491A2000F0BEF969
:104EE0002046BDE8104002F025BB00BF9E4E0020CA
:104EF00070B504461B200D4600F0BCF9064902F0CF
:104F000042FB38B1A3691B6823B129462046BDE89E
:104F10007040184770BD00BF9E4E002070B505461A
:104F20000C461646044AFFF7C3FFAE612046BDE8B3
:104F30007040024902F0C5BA0C7A2000947C20002F
:104F400070B505460C461646FFF770FF2E612046E9
:104F5000BDE87040014902F0B4BA00BF9A7C20005D
:104F600008B5044802F0D4F8BDE80840024802F051
:104F7000CFB800BFB4400020A840002038B50E488C
:104F800002F0D6F8054650B10C4802F0D1F80446BC
:104F9000286030B92946084802F0DEF82546284640
:104FA00038BD00F097F804F1B601A4F8800004F1D0
:104FB000820000F01DF9F2E7A8400020B440002074
:104FC00010B501460446074802F0DCF848B12168F4
:104FD000054802F0C1F82146BDE81040014802F042
:104FE000BBB810BDA8400020B440002010B5014659
:104FF0000446094802F0C6F868B12468B4F8801085
:10500000204600F0DFF804F1B60104F18200BDE8AB
:10501000104000F001B910BDA840002010B50749AC
:105020000B88834208DB064C80B222880244181A9F
:1050300008800120228010BD0020FCE71C4D0020CC
:105040001E4D0020014B1880704700BF1C4D0020F2
:10505000004870473C440020014B1888704700BF4F
:105060001C4D0020034A044B10781B781844C0B232
:10507000704700BF434E00201E4D00202DE9F04137
:105080000C4F3A8872B100240B4B0C4EB3F80080E1
:105090000B4B1D78354421B2414504F1010403DB7B
:1050A00000233B80BDE8F081FFF7DCFF3044435C28
:1050B0006B54F0E71E4D00201C4D00203C440020A6
:1050C000434E002008B5FFF7CDFF014B184408BD43
:1050D0003C440020F8B50C4B05461E780B4B1F884E
:1050E000F419802C0DDC3246094901F0E5FDFFF78B
:1050F000E9FF354401463A46284601F0DDFD2046E9
:10510000F8BD0024FBE700BF434E00201C4D0020EB
:105110003C44002008B5FFF7A5FF024B1B8818444C
:1051200080B208BD1C4D002010B50146FFF7F2FF0C
:105130004318802B0FDC094B013800B25A180404C5
:1051400005D5074B187808441870012010BDC45CC1
:1051500014540138F3E70020F8E700BF3C44002076
:10516000434E002038B50C4D0C4C342200210C4825
:1051700001F018FE2946204602F002FA2946A01C3A
:1051800002F0FEF92946201D02F0FAF92946A01D79
:10519000BDE8384002F0F4B9887A2000624E002061
:1051A0006A4E00200023044A1380044A1380044AF4
:1051B0001370FFF7D7BF00BF1E4D00201C4D00200D
:1051C000434E002038B50C460546FFF7EBFF802C18
:1051D00028BF802429462246034801F06DFD034B79
:1051E00020461C8038BD00BF3C4400201C4D0020E0
:1051F00010B5074B03F1340253F8044B934240F8C7
:10520000044BF9D1034A13680B6053684B6010BD1F
:105210006A4E0020624E002010B5074B00F13402A8
:1052200050F8044B904243F8044BF9D10B68034A01
:1052300013604B68536010BD6A4E0020624E002020
:10524000024B23F810100120704700BF6A4E002067
:10525000014B33F8100070476A4E002008B5044B2C
:105260001A3803EB400002F08BF9012008BD00BFA3
:10527000624E0020024B1A3803EB4000704700BF1B
:10528000624E00200149024802F07DB9887A200070
:10529000644E0020084B10B51B689847074B5B68AD
:1052A0009847074B5B689847064B5B689847BDE893
:1052B0001040054B5B6818471C7920003C7A2000A1
:1052C000687A2000207A2000F07920002DE9F04152
:1052D000FDF7B6FB002504460C27DFF83C8007FBF2
:1052E00005861A20FFF7C6FF314602F04CF970B16F
:1052F0000A20FFF7ADFF337A83420BD17068201A82
:10530000B0F5206F8CBF00200120BDE8F081013591
:10531000102DE4D10020F8E7BC440020F8B5164E6B
:10532000002537460C241A20FFF7A4FF04FB056173
:1053300002F029F9013508B9102DF3D104FB05F36A
:105340000C3B0FD10A20FFF783FF3872FDF778FB83
:1053500078601A20FFF78EFFBDE8F8400146064846
:1053600002F00EB99819014651F80C2D9A514A686D
:1053700042608A688260E3E7BC44002030B591B0A7
:10538000054600F091F84FF6FF73984204D14FF0B4
:10539000FF34204611B030BD40220021684601F0A4
:1053A00001FD3E4B1A782AB901221A70FFF7ECFB77
:1053B0003B4B18701420FFF74BFF8DF810001320A3
:1053C000FFF746FF8DF81200FFF75CFF0446002848
:1053D00045D000238DF813308DF8153000230124BB
:1053E0008DF814308DF818404DB10A20FFF730FFCA
:1053F00000283CD00A20FFF72BFF8DF81A0002246A
:105400008DF8194000F050F8ADF81C00FFF73AFF96
:10541000002839D04FF6FF738DF81740ADF80030F3
:1054200000F042F81F49ADF81E0002A802F0A8F8EB
:10543000FFF748FE0E90FFF70FFE0F90684602F050
:105440007FF90446002DA4D0FFF76EFE00289ED001
:10545000FFF7FEFD0146684602F08BF999E70B2045
:10546000FFF7F6FE8DF815408DF81300B6E70C4BEC
:105470001A7802B91C7019780A204A1C1A708DF823
:105480001A10FFF7DDFEBAE71B20FFF7F3FE014617
:10549000684602F075F88DF81740C1E7444E0020C9
:1054A000454E00209E4E0020014B1888704700BFDB
:1054B000F44000202DE9F041012986B006460F4650
:1054C000144603DC002006B0BDE8F081037803F049
:1054D00007028DF80C20C3F3C0028DF80D20C3F332
:1054E00000128DF80E20C3F34012C3F380138DF821
:1054F000103043788DF80F20C3F340028DF812204E
:10550000C3F3810203F001058DF81320C3F30112E8
:105510009B098DF815308DF814208DF8115003ABD0
:1055200003CB1B88206161612383002D44D0B51C0F
:1055300002AA01A903A802F083F89DF81380B8F12C
:10554000000F4CD0029B23B16A7815F8023B03EBA5
:105550000223B8F1020FA38332D13249204602F070
:105560000FF86B78237015F8023B63709DF8158077
:10557000B8F1000F4DD0019B002B37D06A7815F899
:10558000023B03EB0223029A9BB2E38302B9A3839B
:10559000B8F1020F2DD1234904F1080001F0F0FF0A
:1055A0006B78237215F8023B6372A81B3B1A874283
:1055B000C4E90E5386DB86E7B378F51CA376B7E71C
:1055C000B8F1030FD2D105F108021346611E13F89A
:1055D000010D9D4201F8010FF9D11546C6E71149A9
:1055E000204601F0CDFFA4F81C80BFE7A38BE38326
:1055F000CEE7B8F1030FD8D105F10802134604F144
:10560000080113F8010D9D4201F8010BF9D115466F
:10561000CBE7044904F1080001F0B2FFA4F81E80B2
:10562000C3E700BF887A2000014BDB68184700BF42
:10563000687A2000014B5B69184700BF3C7A200064
:10564000014B9B69184700BF3C7A2000024BD86988
:1056500000B10047704700BF3C7A200070B590F859
:1056600029500F4B042D28BF04250124DB69064671
:105670009847AC40651E002814BF044601246C43C3
:1056800005D0FFF781FAB0FBF4F303FB14043346B3
:10569000214606F10800034ABDE87040FEF7F6BF58
:1056A0003C7A2000155820002DE9F04107461B20C8
:1056B0008846FFF7DFFD484B05461A78474C22B96C
:1056C00001221A70FFF760FA208023880BB90123AA
:1056D000238021880A204B1C2380FFF7B1FD40481E
:1056E00001F0DAFC0446002845D13E4801F020FDD7
:1056F0000446002865D02946201D01F041FF002303
:1057000004F12C00C4E90B30238501F0C2FC2146D2
:10571000334801F0DEFC206B01F0F0FC072850DC80
:10572000314801F005FD054600283ED02F4801F024
:10573000FFFCA860A8B3FFF721FC686068B30920EC
:10574000AE68FFF785FD00BB08233372C6E9007819
:105750000D20FFF77DFD01282946206B1AD101F0AD
:10576000C5FC206B01F098FC854232D12046BDE893
:10577000F041FFF773BF2946201D01F004FF002808
:10578000C9D1204601F0C1FCACE70920FFF760FD5C
:105790003072DBE701F09DFCE3E7A968134801F0F4
:1057A000DBFC2946104801F0D7FC206B01F0A6FC79
:1057B00038B921460A4801F079FC2146094801F030
:1057C000CBFC41463846BDE8F0410123042202F0FB
:1057D00040B8BDE8F08100BF464E0020204D0020BB
:1057E000DC450020CC400020D8400020C0400020F4
:1057F00008B5054801F08CFC044801F089FCBDE8BF
:105800000840034801F084BCD8400020C04000207C
:10581000CC40002013B5044668B1006B01F03CFC9D
:10582000024640B12146054B0548DB68019302B0B2
:10583000BDE81040184702B010BD00BF3C7A200000
:10584000C15820002DE9F0410D4614468B68804672
:10585000D3E90067106B01F029FC6868FFF7B0FB23
:10586000A968134801F078FC2946124801F074FC3D
:10587000206B01F011FC68B1002320462385FFF75F
:10588000EDFE94F82830424639463046BDE8F041F6
:1058900001F0DFBF04F10800FEF702FF21460648D1
:1058A00001F004FC2146054801F056FCE9E700BF81
:1058B000C0400020D8400020DC450020CC40002023
:1058C0002DE9F0410E461746044620B1006B01F069
:1058D000E3FB054608B9BDE8F0810A21686801F0DC
:1058E00049FE80460A20FFF7B3FC804546D0284693
:1058F00001F00BFCEDE794F8282000203A4484F8EE
:1059000028202946224684F82900BDE8F041FFF707
:1059100099BF002284F8292094F828203A44D2B272
:1059200084F828201B7A93421CD82246294602205C
:10593000EBE794F829203A44D2B2052A84F82920CA
:1059400007D9002194F8282084F82910013284F81E
:10595000282094F828201B7A9A4203D3224629460D
:105960000120D2E72046FFF779FE6868BDE8F041E4
:1059700001F0ECBD224629463046C6E7AB68002B55
:10598000A9D0032EF6D801A252F826F0F75820002D
:105990003359200013592000D758200013B5002494
:1059A000094B1C70094B1C80FDF778F8009400F53A
:1059B0008051074B01220748FEF7B6FF0122064B34
:1059C0001A7002B010BD00BF5E4E0020224D0020B4
:1059D000855E2000CC460020594E0020074B82B047
:1059E0001B784BB1064B1A7832B901221A70054B5D
:1059F0001B6A019302B0184702B07047594E00204D
:105A00005E4E00201C792000094B82B01B786BB1E0
:105A1000084B1A7852B1084A127802F0FF012AB9ED
:105A20001970064B5B6A019302B0184702B07047C9
:105A3000594E00205E4E00205A4E00201C79200056
:105A400008B5FFF7E1FF0022014B1A6008BD00BF57
:105A5000DC460020044B1B7823B9044B1B680BB9B0
:105A6000FFF7D2BF704700BF604E0020DC46002029
:105A70000022094B82B01A70084BC2B21A70084A51
:105A8000084B28B101211B6A1170019302B018471D
:105A900010705B6AF9E700BF594E00205A4E002093
:105AA0005E4E00201C79200037B50B4B1A7802F0AF
:105AB000FF056AB901241C70084B1D70FCF7EEFF4E
:105AC000009500F58051064B22460648FEF72CFF54
:105AD000012003B030BD00BF594E00205A4E0020B7
:105AE000855E2000CC46002037B50B4B05461B7861
:105AF0000C4673B1FCF7D2FF231A022B4FF00003C0
:105B000048BF841C00930122044B21462846FEF71F
:105B10000BFF03B030BD00BF594E0020855E200052
:105B200013B5224C22680AB9FFF76EFFFFF794FA0B
:105B3000032823D0FFF7EEFA00B31D4B9B6898476C
:105B400000281BDBFFF788FAC0B1FFF7E3FAA8B122
:105B50001B20FFF78FFB174901F015FD50B11320F3
:105B6000FFF776FB206058B9FFF74EFF1248FEF7AB
:105B700097FD0DE0FFF786FB0028F0D102B010BDC5
:105B8000FFF72CFF00230D4A04210B48FEF77EFD92
:105B9000FFF79CFB0028F1D1FFF7C0FB084BDB6847
:105BA000019302B0BDE81040184700BFDC4600205A
:105BB0005C7A20009E4E0020A8460020415A20001A
:105BC000207A20002DE9F04F744E89B0337803908D
:105BD0003BB9734B1B7823B90524204609B0BDE8B7
:105BE000F08FFFF797FA0028F6D06E491A20FFF7DA
:105BF00035FBFFF747FB04460C20FFF729FBA8B154
:105C0000FFF788FA81464FF00108674D6F68FFF78C
:105C10001FFA4946B847654FAB6987F80080009383
:105C2000984768B100233B700124D6E701210B207F
:105C3000FFF706FB5E4B5B6898470028E0DACBE78E
:105C4000EB69019398470028ECD1FFF7DDFE33782C
:105C500086F80080DBB20293039B7BBB4FF0060803
:105C60006FF0030A6FF00F0BFCF718FF0490FFF7BB
:105C7000B5FE0498AAEB00030493FCF70FFF049B06
:105C8000C342F9D46B69984748B90090FFF7BCFE4E
:105C900000983870FFF7B8FE029B3370C4E7FFF737
:105CA000B3FEFCF7FBFEABEB00030493FCF7F6FE40
:105CB000049BC342F9D4B8F10108D5D10CB9FFF760
:105CC0008DFE0A20FFF7C4FA5FFA80FBFDF760F84B
:105CD000FCF7E4FE8046374B1B1A0493DFF8D8A08C
:105CE000AAEB080AFCF7DAFE1AEB000F44D5FDF721
:105CF0004FF8002C38D0AB6848469847FCF7CEFEEA
:105D00006FF00C031B1A0593FCF7C8FE059BC342FA
:105D1000F9D4002CE6D1009B984788B3FCF7BEFE6F
:105D20006FF01408A8EB0008FCF7B8FE18EB000FA2
:105D3000FAD42B69032107A89847032829D19DF895
:105D40001E305B4525D100254FF00108FFF75CFEB2
:105D5000029B337000233B70002D7FF465AFD4B9F4
:105D6000984508BF022438E7039B002BC3D0FCF7FB
:105D700095FE049BC342BED400254FF00008E5E722
:105D8000019B98470028C9D16B6998470028A5D185
:105D9000C4E70125F1E72C461FE700BF594E00205C
:105DA0005A4E00209E4E00201C792000604E00209C
:105DB0005C7A2000DEFDFFFFB0EFFFFF2DE9F0472A
:105DC000074688461446002A56D02C4B1E6856B10A
:105DD0005068FFF70BF901231A4641463846BDE8E3
:105DE000F04701F036BD1546DFF894A0284601F0D3
:105DF0008CF981466868FFF7F9F80C20FFF728FA5C
:105E0000C8B9B9F1000F03D001211320FFF718FA28
:105E100001210B20FFF714FADAF804309847002824
:105E200002DA01230522D8E701210C20FFF708FA46
:105E3000686801F091FB4D46002DD7D1204601F056
:105E400064F905466068FFF7D1F81320FFF700FA00
:105E500081463046FFF7B6FE032804460CD00246C2
:105E600001234146384601F0F4FC2CB925B12C46FB
:105E70000126B9F1000FE1D1BDE8F087DC46002032
:105E80005C7A200040F2B1122DE9F3476A4C0546D6
:105E90002388934213D0B3F5D97F03D2002B75D05A
:105EA000002395E040F2E31293421DD040F202221B
:105EB0009342F5D10023614A1370614A02E0604ABF
:105EC0001378013313705E4B1B78012B63D95B4B46
:105ED0001B78002B47D0FCF7E1FD5A4B5A4A18605B
:105EE00000231370594A1370594B5A4F1B784BBB00
:105EF0003B783BB3FCF7D2FD6FF4CC72514B1B687F
:105F0000C01A104400281DDA534EDFF83C91736923
:105F10009847B04600285FD099F80030013389F8DF
:105F200000304A4ED8F818A0337801333370D04788
:105F300010B1002389F8003099F80030052B4ED9B4
:105F4000FFF788FD3B7873B1434EB369984700284B
:105F50006BD0FCF7A3FD3B4B1B68C01A6FF4CC73EE
:105F60001844002865DA3D4E336803F580533360EA
:105F7000FCF794FD3368C3F1A003C3429AD531689E
:105F80002846FFF7B1FD40F2022321E0FCF786FD31
:105F9000324B18608EE72E4B1A7882B9304A12685D
:105FA0006AB91B780BB9FFF719FD2B4B5B69984752
:105FB00018B90122214B1A7089E7FFF74BFDFCF756
:105FC0006DFD00F110012846FFF78EFD40F2B11380
:105FD000238002B0BDE8F08789F80000A1E733789C
:105FE000D8F81C800A2B04D9D04710B9C047002824
:105FF000A6D0C0470028A5D11A4B1B7893B12E68B4
:10600000FCF74CFD331A13F1120F4FF0000348BF99
:10601000811C009358BF06F11401134B012228463E
:10602000FEF782FC40F2E313D2E7F36998470028B9
:106030008FD1FFF70FFD96E7224D00205C4E002028
:106040005B4E0020D84600205F4E00205D4E0020B1
:10605000604E00205E4E00201C792000C8460020C3
:10606000DC460020594E0020855E200008B5024B1A
:106070001B689847023008BD147A200038B50C4BD5
:106080009B689847041E02DA4FF0FF3038BDFFF7D7
:1060900019F803780546002BF6D10220FEF7BEFF63
:1060A0000028F1D06878FEF7CDFFA01CEEE700BF16
:1060B000147A200070B50220FFF736F810B94FF0BF
:1060C000FF3070BDFEF7C4FF002505700446FEF7E3
:1060D000C3FF6070FFF71EF80446FFF7C7FF2044B8
:1060E0002A2812DCC0F12B00C4B2FEF7EBFF0646F3
:1060F000FEF7B2FF22462946304400F053FEFEF779
:10610000ABFF204480B2FEF79DFF044B5B689847CD
:10611000041ED4DBFEF7B2FFA01CD2E7147A2000E5
:10612000014B9B68184700BFF079200070B504460A
:106130000D4614200121FFF783F8034B2946204622
:10614000BDE870409B681847207A200008B51B20E6
:10615000FFF790F8064901F016FA38B90720FCF766
:10616000BBFABDE808400120FCF7AEBA08BD00BF8D
:10617000887A200081F0004102E000BF83F00043F4
:1061800030B54FEA41044FEA430594EA050F08BFD2
:1061900090EA020F1FBF54EA000C55EA020C7FEA96
:1061A000645C7FEA655C00F0E2804FEA5454D4EB13
:1061B0005555B8BF6D420CDD2C4480EA020281EADD
:1061C000030382EA000083EA010180EA020281EA15
:1061D0000303362D88BF30BD11F0004F4FEA013167
:1061E0004FF4801C4CEA113102D0404261EB410176
:1061F00013F0004F4FEA03334CEA133302D05242FC
:1062000063EB430394EA050F00F0A780A4F10104B7
:10621000D5F1200E0DDB02FA0EFC22FA05F28018F1
:1062200041F1000103FA0EF2801843FA05F35941D7
:106230000EE0A5F120050EF1200E012A03FA0EFC56
:1062400028BF4CF0020C43FA05F3C01851EBE37180
:1062500001F0004507D54FF0000EDCF1000C7EEB9D
:1062600000006EEB0101B1F5801F1BD3B1F5001FDB
:106270000CD349085FEA30004FEA3C0C04F10104FA
:106280004FEA445212F5800F80F09A80BCF1004F23
:1062900008BF5FEA500C50F1000041EB045141EAA5
:1062A000050130BD5FEA4C0C404141EB010111F4A6
:1062B000801FA4F10104E9D191F0000F04BF014651
:1062C0000020B1FA81F308BF2033A3F10B03B3F12F
:1062D00020020CDA0C3208DD02F1140CC2F10C02BF
:1062E00001FA0CF021FA02F10CE002F11402D8BF1D
:1062F000C2F1200C01FA02F120FA0CFCDCBF41EAE9
:106300000C019040E41AA2BF01EB0451294330BDB7
:106310006FEA04041F3C1CDA0C340EDC04F1140494
:10632000C4F1200220FA04F001FA02F340EA03006B
:1063300021FA04F345EA030130BDC4F10C04C4F1B1
:10634000200220FA02F001FA04F340EA0300294691
:1063500030BD21FA04F0294630BD94F0000F83F4DB
:10636000801306BF81F480110134013D4EE77FEABE
:10637000645C18BF7FEA655C29D094EA050F08BF0A
:1063800090EA020F05D054EA000C04BF19461046EB
:1063900030BD91EA030F1EBF0021002030BD5FEA2F
:1063A000545C05D14000494128BF41F0004130BD57
:1063B00014F580043CBF01F5801130BD01F00045AB
:1063C00045F0FE4141F470014FF0000030BD7FEA1E
:1063D000645C1ABF194610467FEA655C1CBF0B4619
:1063E000024650EA013406BF52EA033591EA030F30
:1063F00041F4002130BD00BF90F0000F04BF002128
:10640000704730B54FF4806404F132044FF000055A
:106410004FF0000150E700BF90F0000F04BF0021D3
:10642000704730B54FF4806404F1320410F0004539
:1064300048BF40424FF000013EE700BF42004FEA34
:10644000E2014FEA31014FEA02701FBF12F07F43B1
:1064500093F07F4F81F06051704732F07F4208BF68
:10646000704793F07F4F04BF41F40021704730B56F
:106470004FF4607401F0004521F000411CE700BFBB
:1064800050EA010208BF704730B54FF000050AE03E
:1064900050EA010208BF704730B511F0004502D53F
:1064A000404261EB41014FF4806404F132045FEA41
:1064B000915C3FF4D8AE4FF003025FEADC0C18BFEA
:1064C00003325FEADC0C18BF033202EBDC02C2F1DC
:1064D000200300FA03FC20FA02F001FA03FE40EA6E
:1064E0000E0021FA02F11444BDE600BF70B54FF072
:1064F000FF0C4CF4E06C1CEA11541DBF1CEA135550
:1065000094EA0C0F95EA0C0F00F0DEF82C4481EAB7
:10651000030621EA4C5123EA4C5350EA013518BFD7
:1065200052EA033541F4801143F4801338D0A0FBC4
:1065300002CE4FF00005E1FB02E506F00042E0FB71
:1065400003E54FF00006E1FB03569CF0000F18BF77
:106550004EF0010EA4F1FF04B6F5007F64F540741F
:1065600004D25FEA4E0E6D4146EB060642EAC621B2
:1065700041EA55514FEAC52040EA5E504FEACE2E1F
:10658000B4F1FD0C88BFBCF5E06F1ED8BEF1004F22
:1065900008BF5FEA500E50F1000041EB045170BD9E
:1065A00006F0004646EA010140EA020081EA0301E2
:1065B000B4EB5C04C2BFD4EB0C0541EA045170BDDE
:1065C00041F480114FF0000E013C00F3AB8014F158
:1065D000360FDEBF002001F0004170BDC4F10004A1
:1065E000203C35DA0C341BDC04F11404C4F1200522
:1065F00000FA05F320FA04F001FA05F240EA02007D
:1066000001F0004221F0004110EBD37021FA04F6B2
:1066100042EB06015EEA430E08BF20EAD37070BD6C
:10662000C4F10C04C4F1200500FA04F320FA05F0CB
:1066300001FA04F240EA020001F0004110EBD370CD
:1066400041F100015EEA430E08BF20EAD37070BD3D
:10665000C4F1200500FA05F24EEA020E20FA04F316
:1066600001FA05F243EA020321FA04F001F00041C5
:1066700021FA04F220EA020000EBD3705EEA430E36
:1066800008BF20EAD37070BD94F0000F0FD101F065
:106690000046400041EB010111F4801F08BF013C9E
:1066A000F7D041EA060195F0000F18BF704703F0DC
:1066B0000046520043EB030313F4801F08BF013D63
:1066C000F7D043EA0603704794EA0C0F0CEA13551F
:1066D00018BF95EA0C0F0CD050EA410618BF52EAD9
:1066E0004306D1D181EA030101F000414FF00000DF
:1066F00070BD50EA410606BF1046194652EA4306ED
:1067000019D094EA0C0F02D150EA013613D195EA60
:106710000C0F05D152EA03361CBF104619460AD1A8
:1067200081EA030101F0004141F0FE4141F47001B2
:106730004FF0000070BD41F0FE4141F4780170BDA2
:1067400070B54FF0FF0C4CF4E06C1CEA11541DBF07
:106750001CEA135594EA0C0F95EA0C0F00F0A7F809
:10676000A4EB050481EA030E52EA03354FEA013136
:1067700000F088804FEA03334FF0805545EA131349
:1067800043EA12634FEA022245EA111545EA106511
:106790004FEA00260EF000419D4208BF964244F1A8
:1067A000FD0404F5407402D25B084FEA3202B61AC7
:1067B00065EB03055B084FEA32024FF480104FF49B
:1067C000002CB6EB020E75EB030E22BFB61A75460F
:1067D00040EA0C005B084FEA3202B6EB020E75EBA2
:1067E000030E22BFB61A754640EA5C005B084FEA0A
:1067F0003202B6EB020E75EB030E22BFB61A7546D7
:1068000040EA9C005B084FEA3202B6EB020E75EBE1
:10681000030E22BFB61A754640EADC0055EA060EA2
:1068200018D04FEA051545EA16754FEA06164FEAE5
:10683000C30343EA52734FEAC2025FEA1C1CC0D191
:1068400011F4801F0BD141EA00014FF000004FF01E
:10685000004CB6E711F4801F04BF01430020B4F1DF
:10686000FD0C88BFBCF5E06F3FF6AFAEB5EB030C97
:1068700004BFB6EB020C5FEA500C50F1000041EB94
:10688000045170BD0EF0004E4EEA113114EB5C0461
:10689000C2BFD4EB0C0541EA045170BD41F4801134
:1068A0004FF0000E013C90E645EA060E8DE60CEA3C
:1068B000135594EA0C0F08BF95EA0C0F3FF43BAF59
:1068C00094EA0C0F0AD150EA01347FF434AF95EA10
:1068D0000C0F7FF425AF104619462CE795EA0C0FF4
:1068E00006D152EA03353FF4FDAE1046194622E7C1
:1068F00050EA410618BF52EA43067FF4C5AE50EA9B
:1069000041047FF40DAF52EA43057FF4EBAE12E78A
:106910004A0011D212F5001211D20DD56FF478731E
:10692000B3EB62520ED44FEAC12343F0004343EA73
:10693000505323FA02F070474FF00000704750EABE
:10694000013002D14FF0FF3070474FF00000704728
:1069500053B94AB9002908BF00281CBF4FF0FF31C6
:106960004FF0FF3000F074B9ADF1080C6DE904CEC2
:1069700000F006F8DDF804E0DDE9022304B070471A
:106980002DE9F0478C460446089E002B4BD18A42E5
:10699000154667D9B2FA82F24AB1C2F1200701FA6C
:1069A00002F320FA07F7954047EA030C94404FEAB8
:1069B000154EBCFBFEF71FFA85F80EFB17C307FB4D
:1069C00008F9210C41EA0343994509D9EB1807F16D
:1069D000FF3180F01C81994540F21981023F2B4420
:1069E000A3EB0903B3FBFEF00EFB103300FB08F131
:1069F000A4B244EA0344A14209D92C1900F1FF339F
:106A000080F00781A14240F2048102382C4440EA20
:106A100007400027641A1EB10023D440C6E9004392
:106A20003946BDE8F0878B4209D9002E00F0EC8092
:106A30000027C6E9000138463946BDE8F087B3FAB9
:106A400083F7002F48D18B4202D3824200F2FB80B1
:106A5000841A61EB030301209C46002EE0D0C6E9B6
:106A6000004CDDE702B9FFDEB2FA82F2002A40F004
:106A70008F800127491B4FEA15481FFA85F9B1FBA2
:106A8000F8FE08FB1E1109FB0EF04FEA144C4CEA0D
:106A90000143984207D9EB180EF1FF3102D2984218
:106AA00000F2CD808E461B1AB3FBF8F008FB1033C2
:106AB00009FB00F9A4B244EA0344A14507D92C1903
:106AC00000F1FF3302D2A14500F2B6801846A4EBD4
:106AD000090440EA0E409EE7C7F12005BB4022FAB8
:106AE00005FC4CEA030C21FA05F44FEA1C4EB4FBFA
:106AF000FEF91FFA8CF80EFB194420FA05F3B94091
:106B000009FB08FA19430B0C43EA0444A24502FAB4
:106B100007F200FA07F30BD91CEB040409F1FF306C
:106B200080F08880A24540F28580A9F10209644482
:106B3000A4EB0A04B4FBFEF00EFB104400FB08FAC1
:106B400089B241EA0444A24508D91CEB040400F1CF
:106B5000FF316BD2A24569D90238644440EA09404A
:106B6000A0FB0289A4EB0A044C454146CE4654D30F
:106B700051D0002E69D05A1A64EB0E0404FA05F5C0
:106B800022FA07F3FC401D43C6E90054002747E7FB
:106B90009540C2F1200321FA03F04FEA1548B0FBFB
:106BA000F8F71FFA85F908FB170024FA03F3914060
:106BB00007FB09FC0B43190C41EA00418C4504FA20
:106BC00002F407D9691807F1FF3031D28C452FD96B
:106BD000023F2944A1EB0C01B1FBF8F008FB101CAB
:106BE00000FB09FE99B241EA0C418E4507D96918AC
:106BF00000F1FF3318D28E4516D902382944A1EB93
:106C00000E0140EA07473AE73746304608E70F46A5
:106C1000E6E61846FBE64345ABD2B8EB020169EB6A
:106C20000C0201389646A4E71846E8E7084695E7BF
:106C30000746CFE781467BE702382C4447E7AEF1B1
:106C4000020E2B442FE7384607E73746E8E600BF39
:106C5000704700BF032A70B414D940EA0105AD079C
:106C600004460B4622D11D6826681946AE422046CE
:106C700003F1040304F1040418D1043A032A204662
:106C80001946F0D8541E72B102780B789A4208BFA8
:106C9000641806D00CE010F8012F11F8013F9A4259
:106CA00006D1A142F7D1002070BC7047541EEBE71B
:106CB000D01A70BC704700BF844641EA000313F04D
:106CC000030349D1403A23D30B6803604B68436008
:106CD0008B688360CB68C3600B6903614B69436158
:106CE0008B698361CB69C3610B6A03624B6A436240
:106CF0008B6A8362CB6AC3620B6B03634B6B436328
:106D00008B6B8363CB6BC36340304031403ADBD243
:106D100030320BD30B6803604B6843608B68836031
:106D2000CB68C36010301031103AF3D20C3205D367
:106D300051F8043B40F8043B043AF9D2043208D03D
:106D4000D2071CBF11F8013B00F8013B01D30B88AF
:106D500003806046704700BF082A13D38B07B1D069
:106D600010F00303AED0C3F10403D21ADB071CBF3B
:106D700011F8013B00F8013BA4D331F8023B20F8A5
:106D8000023B9FE7043AD9D3013A11F8013B00F8DE
:106D9000013BF9D20B7803704B7843708B7883708A
:106DA00060467047F0B4860743D0541E002A3ED098
:106DB000CAB2034602E014F1FF3438D303F8012BC2
:106DC0009D07F8D1032C2BD9CDB245EA05250F2C10
:106DD00045EA054516D9A4F110073F0903F120063D
:106DE00006EB071603F1100242E9045542E9025589
:106DF0001032B242F8D104F00F040137032C03EB38
:106E000007130DD91E462246043A032A46F8045BAE
:106E1000FAD8221F22F003020432134404F00304C0
:106E20002CB1C9B21C4403F8011B9C42FBD1F0BC3D
:106E3000704714460346C5E720F0030110F0030035
:106E4000C0F1000051F8043B00F1040C4FEACC0CF7
:106E50006FF000021CBF22FA0CF213434FF0010C3A
:106E60004CEA0C2C4CEA0C4CA3EB0C0222EA030279
:106E700012EACC1204BF51F8043B0430F4D0C2F142
:106E8000000102EA0102B2FA82F2C2F11F0200EB33
:106E9000D2007047FEE708B5FBF728FBF7B50024E2
:106EA0000646254627463046FBF70EFC0197019B18
:106EB000AB4215DB3046FBF70FFCC5F5C8750197F3
:106EC000019B9D4211DC0134B4F5487F01D103B030
:106ED000F0BDB4F5C87FCCBFC4F548752546E2E7E0
:106EE00000BF019B01330193E1E700BF019B013328
:106EF0000193E5E7FBF7A6BCFBF74EBD704700200A
:106F0000FBF72EBE0120FBF72BBEEFF3108062B61D
:106F10007047EFF3108072B670470020FCF70CB892
:106F20000120FCF709B80220FCF706B80320FCF7A3
:106F300003B810B50C46FCF71FFA2046BDE8104018
:106F4000FCF74CBA10B50446C1B20020FBF706FFAF
:106F5000204610BD70B5054604464618601B0CB1AE
:106F6000237803B970BDB442FCD018460134FFF752
:106F7000E9FFF3E770B505460446661B14F8010BFC
:106F800020B1FFF7DFFF661B002CF6D10A20FFF7C8
:106F9000D9FF304670BD002070470120704710B502
:106FA0000446302200210E20FCF718F86CB1012CA9
:106FB0000CD142F210730011A0F28E5058432A23D4
:106FC00090FBF3F000F5C340283010BD4FF00040B7
:106FD000FBE7002070470120704710B504463022BF
:106FE00000210F20FBF7FAFF5CB1012C03BF40F634
:106FF000F253584347F6F0734FF0004008BF90FB40
:10700000F3F010BD08B5084612B11146FFF7A2FF14
:10701000002008BD38B5044615460068FFF74CFE51
:10702000226800202A44226038BD10B5041F54F89D
:10703000040F00B910BD0021FDF752FCF7E77047BF
:1070400000207047704710B5044600F00DF8204648
:10705000BDE81040FDF764BA837BDB0701D5FDF77F
:1070600035BB7047FFF74ABF10B541600446FBF7D8
:10707000E7FC206010BD10B50446FBF7E1FC236877
:10708000C3F101030344606898422CBF0020012033
:1070900010BD00230360704700687047006808B99E
:1070A000704718460368002BFBD17047036810B582
:1070B0003BB1002499421A6806D11CB90260002332
:1070C0000B6010BD2260FAE71C46002AF9D0134677
:1070D000F0E738B50546FFF7E9FF00230B60FFF73F
:1070E000DDFF08B9296038BD0160FCE738B504460A
:1070F000FFF7DCFF03680B60216038BD03680020E8
:1071000003B9704701301B68FAE700B100687047A7
:1071100010B50446428800214068FFF743FE2388EB
:107120006288A0685A43BDE810400021FFF73ABECC
:10713000002310B54188994201DC002009E0426833
:10714000D418D25C32B9012222700288806803FB15
:10715000020010BD0133EEE7002330B58268448899
:107160009C4201DCFF2008E08A4207D14168CA5CEA
:107170000AB1013ACA544268D05C30BD0588013377
:107180002A44EDE782688A4208D84388008800FBD9
:10719000032081422CBF002001207047002070474F
:1071A0000023013A0160027143718371704710B589
:1071B000427983790479D31A34EA030308D0036847
:1071C000995443790279013313404371012010BD72
:1071D0000020FCE7837942790179D21A0A421FBF65
:1071E0000268D25C01330B401ABF837110464FF026
:1071F000FF307047831C0020023313F8042C02B9BF
:10720000704713F8032C1044F6E7072B2DE9F843D9
:107210000746884615461C4607DC1A46294640465E
:10722000FDF700FD3870BDE8F883DE10BAB14FF00D
:10723000000908EB090008222946FDF7F3FC07F8CE
:10724000090009F101094E45F3DC14F00702EAD008
:10725000294608EB0600FDF7E5FCB855E3E718F80A
:1072600005307B550135AE42F9DC14F00702DAD067
:107270000021EEE72DE9F743FDF724FF0446022045
:10728000FDF7CCFE20B90025284603B0BDE8F08309
:107290006378207800EB032080B2FDF7D5FD05462A
:1072A0000028F0D0FDF70EFF8046287B10F0070382
:1072B00018BF012303EBD000FDF7B0FE0028E2D099
:1072C0000026B146AC68023414F8023C002BDBD037
:1072D000192B14F8017C08EBE60106F007020BD924
:1072E00001A83B46FFF791FF01A914F8020CFDF736
:1072F000B5FF3E440234E7E73B4601A8ADF80490F1
:10730000FFF783FF9DF805109DF8043014F8020C78
:1073100043EA0121FDF794FFEBE7072B2DE9F0414C
:107320000FDC1478C1F11001CB1A04FA03F30178D1
:10733000C3F307220A43417802700B434370BDE850
:10734000F081DD1081B3044602F1FF3CC1F1080E6B
:10735000261AB54218DC13F0070325EAE575EED0CE
:10736000525DC3F1080631440A41D2B2C3F11003A1
:10737000415D02FA03F3C3F307220A43441942555D
:10738000627813436370DAE71CF8016F94F80080A9
:1073900006FA0EF6C6F3072747EA0807277014F81F
:1073A000017F3E432670D3E7545C44540131A94227
:1073B000FADB13F00703C2D0525DC3F10804224187
:1073C000C3F11003445D02FA03F3C3F3072222431F
:1073D000411942554A7813434B70B0E72DE9F74302
:1073E000047B054614F0070318BF012303EBD40404
:1073F000A01CFDF799FEA8B1FDF72AFEAB8803702B
:10740000AB881B0A4370FDF723FE871C2246002130
:107410003846FFF7C7FCAC680025023414F8020CAC
:1074200018B9012003B0BDE8F083192814F8016CE5
:1074300007EBE50805F007090AD9FDF71BFF3346FE
:10744000024649464046FFF768FF35440234E5E707
:10745000FDF7FEFE8DF80400000A8DF805003346A6
:1074600001AAEEE710B5FDF77BFDFDF79BFEFDF7EA
:10747000A7FC00F032F8BDE810404FF4E1234FF4D0
:10748000F0524FF400710220FDF782BC7047F8B54E
:107490000F46FDF717FE06880446FDF7DDFDB30035
:1074A0000233834203D800250234AE4200DCF8BD2B
:1074B00054F8041B38460A0C89B2FDF793FC0135D9
:1074C000F3E738B50D46FDF7BFFC044620B18560F3
:1074D0002846FDF7E7FC207338BDFDF7A1BC4369E2
:1074E0005B6803B11847704713B504461A20FDF7CF
:1074F000C1FE014601A800F043F863691B6813B19F
:1075000001A92046984702B010BD00F011B8836968
:107510005B6803B118477047FFF7F7BF10B5044623
:107520001B20FDF79BFE2046BDE81040FDF7D2BCB6
:10753000FDF784BCFDF7BCBB03691B6803B11847AA
:10754000704703695B6803B118477047006800F132
:10755000B6018230FDF74CBE10B5046804F1B601E7
:1075600004F18200FDF744FE2046FDF7B3FDA4F8C8
:10757000800010BD036803EB4101B1F88200704741
:107580000B880380704708B50222FFF763FBB0FA4F
:1075900080F0400908BD30B591B0FDF793FD044679
:1075A000FDF75AFD6A4601462046FDF783FF044673
:1075B00020B94FF0FF34204611B030BDFDF72EFD4D
:1075C0000028F6D09DF810101420FDF739FE9DF824
:1075D0001730ABB1BDF81C50FDF766FF854205D0F2
:1075E0004FF6FF73BDF81C209A42E2D169469DF820
:1075F000170000F096F818B969461B20FDF72EFE1B
:1076000002A91A20FDF72AFE9DF812101320FDF79B
:1076100017FE9DF8153053B99DF81A100A20FDF792
:107620000FFE9DF81A100E20FDF70AFEC3E74FF675
:10763000FF71F3E70120FDF7A1BE0020FDF79EBE1C
:1076400030B578B1037A022B14D10479C57954B9D5
:1076500015BB447A2B46003418BF012401B10C60DD
:1076600002B1136030BDCDB9437A2C46B3FA83F32F
:107670005B09F3E70378022B10D0037953B9447AFE
:1076800014F0030418BF0124C37913F0030318BFD7
:107690000123E3E70024F7E70123DFE700231C468B
:1076A000DCE7002337B50B608B80437D0D46D9079F
:1076B0005CBF01232B70037E0446012B0BD8C37DD6
:1076C0009A072CD0437E9B0729D0C28B838B9A428A
:1076D00025D10123237501AA694604F11000FFF7A3
:1076E000AFFF009B0BB10223EB70019B0BB1022398
:1076F0006B70E37D03F00303022B03D0032B0CBF5D
:1077000008230023AB70637E03F00303022B03D036
:10771000032B0CBF082300232B7103B030BD0023C3
:10772000D8E702280CBF022308230B448B4201D167
:107730000120704713F8012DFF2AF7D00020704771
:1077400007B56946FFF7ADFF9DF800309DF80100D1
:10775000023303449DF8020003449DF803000344F0
:107760009DF8040003449DF80500184403B05DF83B
:1077700004FB37B504460D466946FFF792FF637C6C
:10778000A27CDB00120102F0100203F00803134395
:10779000227C02F007021343E27C520102F0200235
:1077A0001343227D920102F0400213432B70637D4C
:1077B000627E03F0010343EA8213A27D520002F0CD
:1077C00002021343E27D920002F00C021343227E78
:1077D000120102F0300213436B709DF80030012B50
:1077E00002BFA37E0320AB709DF8013018BF0220BA
:1077F000022B08D1A28B431C2A54A28BDBB202308D
:10780000120AC0B2EA549DF802301844C0B2C21A3B
:10781000D2B2ABB99DF80330022B08D1E28B431CE6
:107820002A54E28BDBB20230120AC0B2EA549DF84D
:1078300004301844C0B2C21AD2B22BB903B030BD62
:10784000013BE15CA954E2E7013BE118097AA95444
:10785000F1E730B40D460446114620B11A462846D9
:10786000234630BC184730BC70471020704770B5B5
:10787000044600200D46FEF7A5F90328024606D06F
:1078800029462046BDE870400123FFF7E2BF70BDE6
:10789000704708B50720FAF71FFFBDE8084002202F
:1078A000FAF712BF0A7B2000ED26200049272000AE
:1078B00000000000010000000100000001000000C5
:1078C00000C0004000410D40000000000800000022
:1078D0002C00000000000001FFFFFFFF050000007A
:1078E00002000000020000000200000000D0004082
:1078F00008410D4002000000080000002C000000BC
:1079000002010200FFFFFFFF06000000A57B200030
:10791000A97B2000B87B2000BC7B20000937200019
:1079200079332000DD332000336F2000A93420009C
:107930003D332000413120005931200069312000C1
:1079400001312000DD312000153620005D38200097
:107950007934200007000000FF000000050000004F
:10796000ED00000003000000D50000000100000051
:10797000C500000000000000B6000000FFFFFFFF90
:10798000B0000000FDFFFFFFA1000000FBFFFFFFB4
:1079900091000000F9FFFFFF88000000F7FFFFFFE4
:1079A00072000000F5FFFFFF62000000F3FFFFFF21
:1079B00058000000F1FFFFFF42000000E8FFFFFF5A
:1079C00000000000E37B20009F6F2000976F2000E5
:1079D0009B6F2000F77B2000DB6F2000D36F20001F
:1079E000D76F200075722000DD732000F571200034
:1079F0008B7C2000657420007D4C20008F7420005B
:107A00008D742000E9742000DF742000F14E200006
:107A10000F7520003B7620003576200097752000FA
:107A20009C7C2000F1572000A956200029562000F8
:107A300035562000415620004D562000A17C2000E4
:107A40009D5920006F782000BD5D2000215B200043
:107A5000A95A2000715A20006B7820006D60200028
:107A6000B56020007D602000AC7C20009178200073
:107A70002D61200021612000E44000200000000072
:107A8000937820004D6120000000436F6E74696B95
:107A9000692D332E782D323936372D6733396261AF
:107AA0006234663135005A6F6C65727469612052B8
:107AB000452D4D6F7465207265766973696F6E2010
:107AC0004220706C6174666F726D0052696D652042
:107AD000636F6E6669677572656420776974682084
